{
  "contractName": "Escrow",
  "abi": [
    {
      "constant": true,
      "inputs": [],
      "name": "disbursalAddress",
      "outputs": [
        {
          "name": "",
          "type": "address"
        }
      ],
      "payable": false,
      "stateMutability": "view",
      "type": "function"
    },
    {
      "constant": true,
      "inputs": [],
      "name": "owner",
      "outputs": [
        {
          "name": "",
          "type": "address"
        }
      ],
      "payable": false,
      "stateMutability": "view",
      "type": "function"
    },
    {
      "constant": true,
      "inputs": [
        {
          "name": "contractName",
          "type": "string"
        },
        {
          "name": "migrationId",
          "type": "string"
        }
      ],
      "name": "isMigrated",
      "outputs": [
        {
          "name": "",
          "type": "bool"
        }
      ],
      "payable": false,
      "stateMutability": "view",
      "type": "function"
    },
    {
      "constant": true,
      "inputs": [],
      "name": "renderTokenAddress",
      "outputs": [
        {
          "name": "",
          "type": "address"
        }
      ],
      "payable": false,
      "stateMutability": "view",
      "type": "function"
    },
    {
      "constant": false,
      "inputs": [
        {
          "name": "newOwner",
          "type": "address"
        }
      ],
      "name": "transferOwnership",
      "outputs": [],
      "payable": false,
      "stateMutability": "nonpayable",
      "type": "function"
    },
    {
      "anonymous": false,
      "inputs": [
        {
          "indexed": false,
          "name": "disbursalAddress",
          "type": "address"
        }
      ],
      "name": "DisbursalAddressUpdate",
      "type": "event"
    },
    {
      "anonymous": false,
      "inputs": [
        {
          "indexed": false,
          "name": "_jobId",
          "type": "string"
        },
        {
          "indexed": false,
          "name": "_balance",
          "type": "uint256"
        }
      ],
      "name": "JobBalanceUpdate",
      "type": "event"
    },
    {
      "anonymous": false,
      "inputs": [
        {
          "indexed": false,
          "name": "renderTokenAddress",
          "type": "address"
        }
      ],
      "name": "RenderTokenAddressUpdate",
      "type": "event"
    },
    {
      "anonymous": false,
      "inputs": [
        {
          "indexed": true,
          "name": "previousOwner",
          "type": "address"
        },
        {
          "indexed": true,
          "name": "newOwner",
          "type": "address"
        }
      ],
      "name": "OwnershipTransferred",
      "type": "event"
    },
    {
      "anonymous": false,
      "inputs": [
        {
          "indexed": false,
          "name": "contractName",
          "type": "string"
        },
        {
          "indexed": false,
          "name": "migrationId",
          "type": "string"
        }
      ],
      "name": "Migrated",
      "type": "event"
    },
    {
      "constant": false,
      "inputs": [
        {
          "name": "_owner",
          "type": "address"
        },
        {
          "name": "_renderTokenAddress",
          "type": "address"
        }
      ],
      "name": "initialize",
      "outputs": [],
      "payable": false,
      "stateMutability": "nonpayable",
      "type": "function"
    },
    {
      "constant": false,
      "inputs": [
        {
          "name": "_sender",
          "type": "address"
        }
      ],
      "name": "initialize",
      "outputs": [],
      "payable": false,
      "stateMutability": "nonpayable",
      "type": "function"
    },
    {
      "constant": false,
      "inputs": [
        {
          "name": "_newDisbursalAddress",
          "type": "address"
        }
      ],
      "name": "changeDisbursalAddress",
      "outputs": [],
      "payable": false,
      "stateMutability": "nonpayable",
      "type": "function"
    },
    {
      "constant": false,
      "inputs": [
        {
          "name": "_newRenderTokenAddress",
          "type": "address"
        }
      ],
      "name": "changeRenderTokenAddress",
      "outputs": [],
      "payable": false,
      "stateMutability": "nonpayable",
      "type": "function"
    },
    {
      "constant": false,
      "inputs": [
        {
          "name": "_jobId",
          "type": "string"
        },
        {
          "name": "_recipients",
          "type": "address[]"
        },
        {
          "name": "_amounts",
          "type": "uint256[]"
        }
      ],
      "name": "disburseJob",
      "outputs": [],
      "payable": false,
      "stateMutability": "nonpayable",
      "type": "function"
    },
    {
      "constant": false,
      "inputs": [
        {
          "name": "_jobId",
          "type": "string"
        },
        {
          "name": "_tokens",
          "type": "uint256"
        }
      ],
      "name": "fundJob",
      "outputs": [],
      "payable": false,
      "stateMutability": "nonpayable",
      "type": "function"
    },
    {
      "constant": true,
      "inputs": [
        {
          "name": "_jobId",
          "type": "string"
        }
      ],
      "name": "jobBalance",
      "outputs": [
        {
          "name": "",
          "type": "uint256"
        }
      ],
      "payable": false,
      "stateMutability": "view",
      "type": "function"
    }
  ],
  "bytecode": "0x608060405234801561001057600080fd5b506118f3806100206000396000f3006080604052600436106100ba576000357c0100000000000000000000000000000000000000000000000000000000900463ffffffff16806333c16f1c146100bf578063485cc955146101045780634eb80ff4146101675780635018e991146101b65780635dca714c1461020d5780638da5cb5b146102785780639d69db0a146102cf578063c0b34d8a14610312578063c0bac1a814610355578063c4d66de81461041c578063e39270e81461045f578063f2fde38b146104b6575b600080fd5b3480156100cb57600080fd5b50610102600480360381019080803590602001908201803590602001919091929391929390803590602001909291905050506104f9565b005b34801561011057600080fd5b50610165600480360381019080803573ffffffffffffffffffffffffffffffffffffffff169060200190929190803573ffffffffffffffffffffffffffffffffffffffff1690602001909291905050506106a2565b005b34801561017357600080fd5b506101a0600480360381019080803590602001908201803590602001919091929391929390505050610b1b565b6040518082815260200191505060405180910390f35b3480156101c257600080fd5b506101cb610b4b565b604051808273ffffffffffffffffffffffffffffffffffffffff1673ffffffffffffffffffffffffffffffffffffffff16815260200191505060405180910390f35b34801561021957600080fd5b50610276600480360381019080803590602001908201803590602001919091929391929390803590602001908201803590602001919091929391929390803590602001908201803590602001919091929391929390505050610b71565b005b34801561028457600080fd5b5061028d610f42565b604051808273ffffffffffffffffffffffffffffffffffffffff1673ffffffffffffffffffffffffffffffffffffffff16815260200191505060405180910390f35b3480156102db57600080fd5b50610310600480360381019080803573ffffffffffffffffffffffffffffffffffffffff169060200190929190505050610f68565b005b34801561031e57600080fd5b50610353600480360381019080803573ffffffffffffffffffffffffffffffffffffffff16906020019092919050505061108d565b005b34801561036157600080fd5b50610402600480360381019080803590602001908201803590602001908080601f0160208091040260200160405190810160405280939291908181526020018383808284378201915050505050509192919290803590602001908201803590602001908080601f016020809104026020016040519081016040528093929190818152602001838380828437820191505050505050919291929050505061127d565b604051808215151515815260200191505060405180910390f35b34801561042857600080fd5b5061045d600480360381019080803573ffffffffffffffffffffffffffffffffffffffff169060200190929190505050611368565b005b34801561046b57600080fd5b50610474611626565b604051808273ffffffffffffffffffffffffffffffffffffffff1673ffffffffffffffffffffffffffffffffffffffff16815260200191505060405180910390f35b3480156104c257600080fd5b506104f7600480360381019080803573ffffffffffffffffffffffffffffffffffffffff16906020019092919050505061164c565b005b600360009054906101000a900473ffffffffffffffffffffffffffffffffffffffff1673ffffffffffffffffffffffffffffffffffffffff163373ffffffffffffffffffffffffffffffffffffffff161415156105be576040517f08c379a000000000000000000000000000000000000000000000000000000000815260040180806020018281038252601d8152602001807f6d6573736167652073656e646572206e6f7420617574686f72697a656400000081525060200191505060405180910390fd5b6105f68160028585604051808383808284378201915050925050509081526020016040518091039020546117a490919063ffffffff16565b60028484604051808383808284378201915050925050509081526020016040518091039020819055507f5da8bee6926d973131e8cfc1908a8b2f62d7402ffb2fe8199033df2a0de4ad9e8383600286866040518083838082843782019150509250505090815260200160405180910390205460405180806020018381526020018281038252858582818152602001925080828437820191505094505050505060405180910390a1505050565b6040805190810160405280600681526020017f457363726f7700000000000000000000000000000000000000000000000000008152506040805190810160405280600181526020017f3000000000000000000000000000000000000000000000000000000000000000815250610718828261127d565b15151561072457600080fd5b600073ffffffffffffffffffffffffffffffffffffffff168473ffffffffffffffffffffffffffffffffffffffff16141515156107c9576040517f08c379a00000000000000000000000000000000000000000000000000000000081526004018080602001828103825260178152602001807f5f6f776e6572206d757374206e6f74206265206e756c6c00000000000000000081525060200191505060405180910390fd5b600073ffffffffffffffffffffffffffffffffffffffff168373ffffffffffffffffffffffffffffffffffffffff1614151515610894576040517f08c379a00000000000000000000000000000000000000000000000000000000081526004018080602001828103825260248152602001807f5f72656e646572546f6b656e41646472657373206d757374206e6f742062652081526020017f6e756c6c0000000000000000000000000000000000000000000000000000000081525060400191505060405180910390fd5b61089d84611368565b83600460006101000a81548173ffffffffffffffffffffffffffffffffffffffff021916908373ffffffffffffffffffffffffffffffffffffffff16021790555082600360006101000a81548173ffffffffffffffffffffffffffffffffffffffff021916908373ffffffffffffffffffffffffffffffffffffffff1602179055507fdd117a11c22118c9dee4b5a67ce578bc44529dce21ee0ccc439588fbb9fb4ea38282604051808060200180602001838103835285818151815260200191508051906020019080838360005b8381101561098657808201518184015260208101905061096b565b50505050905090810190601f1680156109b35780820380516001836020036101000a031916815260200191505b50838103825284818151815260200191508051906020019080838360005b838110156109ec5780820151818401526020810190506109d1565b50505050905090810190601f168015610a195780820380516001836020036101000a031916815260200191505b5094505050505060405180910390a160016000836040518082805190602001908083835b602083101515610a625780518252602082019150602081019050602083039250610a3d565b6001836020036101000a0380198251168184511680821785525050505050509050019150509081526020016040518091039020826040518082805190602001908083835b602083101515610acb5780518252602082019150602081019050602083039250610aa6565b6001836020036101000a038019825116818451168082178552505050505050905001915050908152602001604051809103902060006101000a81548160ff02191690831515021790555050505050565b60006002838360405180838380828437820191505092505050908152602001604051809103902054905092915050565b600460009054906101000a900473ffffffffffffffffffffffffffffffffffffffff1681565b6000600460009054906101000a900473ffffffffffffffffffffffffffffffffffffffff1673ffffffffffffffffffffffffffffffffffffffff163373ffffffffffffffffffffffffffffffffffffffff16141515610c5e576040517f08c379a000000000000000000000000000000000000000000000000000000000815260040180806020018281038252602f8152602001807f6d6573736167652073656e646572206e6f7420617574686f72697a656420746f81526020017f2064697362757273652066756e6473000000000000000000000000000000000081525060400191505060405180910390fd5b60006002888860405180838380828437820191505092505050908152602001604051809103902054111515610cfb576040517f08c379a000000000000000000000000000000000000000000000000000000000815260040180806020018281038252601f8152602001807f5f6a6f62496420686173206e6f20617661696c61626c652062616c616e63650081525060200191505060405180910390fd5b8282905085859050141515610d9e576040517f08c379a00000000000000000000000000000000000000000000000000000000081526004018080602001828103825260308152602001807f5f726563697069656e747320616e64205f616d6f756e7473206d75737420626581526020017f207468652073616d65206c656e6774680000000000000000000000000000000081525060400191505060405180910390fd5b600090505b84849050811015610ebb57610dfa8383838181101515610dbf57fe5b9050602002013560028989604051808383808284378201915050925050509081526020016040518091039020546117c090919063ffffffff16565b6002888860405180838380828437820191505092505050908152602001604051809103902081905550610eae8585838181101515610e3457fe5b9050602002013573ffffffffffffffffffffffffffffffffffffffff168484848181101515610e5f57fe5b90506020020135600360009054906101000a900473ffffffffffffffffffffffffffffffffffffffff1673ffffffffffffffffffffffffffffffffffffffff166117d99092919063ffffffff16565b8080600101915050610da3565b7f5da8bee6926d973131e8cfc1908a8b2f62d7402ffb2fe8199033df2a0de4ad9e878760028a8a6040518083838082843782019150509250505090815260200160405180910390205460405180806020018381526020018281038252858582818152602001925080828437820191505094505050505060405180910390a150505050505050565b600160009054906101000a900473ffffffffffffffffffffffffffffffffffffffff1681565b600160009054906101000a900473ffffffffffffffffffffffffffffffffffffffff1673ffffffffffffffffffffffffffffffffffffffff163373ffffffffffffffffffffffffffffffffffffffff16141515610fc457600080fd5b80600460006101000a81548173ffffffffffffffffffffffffffffffffffffffff021916908373ffffffffffffffffffffffffffffffffffffffff1602179055507f2e03f52e5dcb43c7f4a5b2c3dcf187b42f30cf1a27d3a3f3b0d045203f0ee103600460009054906101000a900473ffffffffffffffffffffffffffffffffffffffff16604051808273ffffffffffffffffffffffffffffffffffffffff1673ffffffffffffffffffffffffffffffffffffffff16815260200191505060405180910390a150565b600160009054906101000a900473ffffffffffffffffffffffffffffffffffffffff1673ffffffffffffffffffffffffffffffffffffffff163373ffffffffffffffffffffffffffffffffffffffff161415156110e957600080fd5b600073ffffffffffffffffffffffffffffffffffffffff168173ffffffffffffffffffffffffffffffffffffffff16141515156111b4576040517f08c379a00000000000000000000000000000000000000000000000000000000081526004018080602001828103825260278152602001807f5f6e657752656e646572546f6b656e41646472657373206d757374206e6f742081526020017f6265206e756c6c0000000000000000000000000000000000000000000000000081525060400191505060405180910390fd5b80600360006101000a81548173ffffffffffffffffffffffffffffffffffffffff021916908373ffffffffffffffffffffffffffffffffffffffff1602179055507f1b35e0d2dddbf5a171758490bc40c4ff488846a9d565fdef60fd8ee147dfb43b600360009054906101000a900473ffffffffffffffffffffffffffffffffffffffff16604051808273ffffffffffffffffffffffffffffffffffffffff1673ffffffffffffffffffffffffffffffffffffffff16815260200191505060405180910390a150565b600080836040518082805190602001908083835b6020831015156112b65780518252602082019150602081019050602083039250611291565b6001836020036101000a0380198251168184511680821785525050505050509050019150509081526020016040518091039020826040518082805190602001908083835b60208310151561131f57805182526020820191506020810190506020830392506112fa565b6001836020036101000a038019825116818451168082178552505050505050905001915050908152602001604051809103902060009054906101000a900460ff16905092915050565b6040805190810160405280600781526020017f4f776e61626c65000000000000000000000000000000000000000000000000008152506040805190810160405280600581526020017f312e392e300000000000000000000000000000000000000000000000000000008152506113de828261127d565b1515156113ea57600080fd5b82600160006101000a81548173ffffffffffffffffffffffffffffffffffffffff021916908373ffffffffffffffffffffffffffffffffffffffff1602179055507fdd117a11c22118c9dee4b5a67ce578bc44529dce21ee0ccc439588fbb9fb4ea38282604051808060200180602001838103835285818151815260200191508051906020019080838360005b83811015611492578082015181840152602081019050611477565b50505050905090810190601f1680156114bf5780820380516001836020036101000a031916815260200191505b50838103825284818151815260200191508051906020019080838360005b838110156114f85780820151818401526020810190506114dd565b50505050905090810190601f1680156115255780820380516001836020036101000a031916815260200191505b5094505050505060405180910390a160016000836040518082805190602001908083835b60208310151561156e5780518252602082019150602081019050602083039250611549565b6001836020036101000a0380198251168184511680821785525050505050509050019150509081526020016040518091039020826040518082805190602001908083835b6020831015156115d757805182526020820191506020810190506020830392506115b2565b6001836020036101000a038019825116818451168082178552505050505050905001915050908152602001604051809103902060006101000a81548160ff021916908315150217905550505050565b600360009054906101000a900473ffffffffffffffffffffffffffffffffffffffff1681565b600160009054906101000a900473ffffffffffffffffffffffffffffffffffffffff1673ffffffffffffffffffffffffffffffffffffffff163373ffffffffffffffffffffffffffffffffffffffff161415156116a857600080fd5b600073ffffffffffffffffffffffffffffffffffffffff168173ffffffffffffffffffffffffffffffffffffffff16141515156116e457600080fd5b8073ffffffffffffffffffffffffffffffffffffffff16600160009054906101000a900473ffffffffffffffffffffffffffffffffffffffff1673ffffffffffffffffffffffffffffffffffffffff167f8be0079c531659141344cd1fd0a4f28419497f9722a3daafe3b4186f6b6457e060405160405180910390a380600160006101000a81548173ffffffffffffffffffffffffffffffffffffffff021916908373ffffffffffffffffffffffffffffffffffffffff16021790555050565b600081830190508281101515156117b757fe5b80905092915050565b60008282111515156117ce57fe5b818303905092915050565b8273ffffffffffffffffffffffffffffffffffffffff1663a9059cbb83836040518363ffffffff167c0100000000000000000000000000000000000000000000000000000000028152600401808373ffffffffffffffffffffffffffffffffffffffff1673ffffffffffffffffffffffffffffffffffffffff16815260200182815260200192505050602060405180830381600087803b15801561187c57600080fd5b505af1158015611890573d6000803e3d6000fd5b505050506040513d60208110156118a657600080fd5b810190808051906020019092919050505015156118c257600080fd5b5050505600a165627a7a723058203c8385ee20731e1a048c5c854f324f40a6000663b3acca10d4a5f983d6d76ad60029",
  "source": "pragma solidity ^0.4.24;\r\n\r\nimport { ERC20, SafeERC20 } from \"../node_modules/openzeppelin-solidity/contracts/token/ERC20/SafeERC20.sol\";\r\nimport { Migratable } from \"../node_modules/zos-lib/contracts/migrations/Migratable.sol\";\r\nimport { Ownable } from \"../node_modules/openzeppelin-zos/contracts/ownership/Ownable.sol\";\r\nimport { SafeMath } from \"../node_modules/openzeppelin-zos/contracts/math/SafeMath.sol\";\r\n\r\n/**\r\n * @title Escrow\r\n * @dev Escrow contract that works with RNDR token\r\n * This contract holds tokens while render jobs are being completed\r\n * and information on token allottment per job\r\n */\r\ncontract Escrow is Migratable, Ownable {\r\n  using SafeERC20 for ERC20;\r\n  using SafeMath for uint256;\r\n\r\n  // This is a mapping of job IDs to the number of tokens allotted to the job\r\n  mapping(string => uint256) private jobBalances;\r\n  // This is the address of the render token contract\r\n  address public renderTokenAddress;\r\n  // This is the address with authority to call the disburseJob function\r\n  address public disbursalAddress;\r\n\r\n  // Emit new disbursal address when disbursalAddress has been changed\r\n  event DisbursalAddressUpdate(address disbursalAddress);\r\n  // Emit the jobId along with the new balance of the job\r\n  // Used on job creation, additional funding added to jobs, and job disbursal\r\n  // Internal systems for assigning jobs will watch this event to determine balances available\r\n  event JobBalanceUpdate(string _jobId, uint256 _balance);\r\n  // Emit new contract address when renderTokenAddress has been changed\r\n  event RenderTokenAddressUpdate(address renderTokenAddress);\r\n\r\n  /**\r\n   * @dev Modifier to check if the message sender can call the disburseJob function\r\n   */\r\n  modifier canDisburse() {\r\n    require(msg.sender == disbursalAddress, \"message sender not authorized to disburse funds\");\r\n    _;\r\n  }\r\n\r\n  /**\r\n   * @dev Initailization\r\n   * @param _owner because this contract uses proxies, owner must be passed in as a param\r\n   * @param _renderTokenAddress see renderTokenAddress\r\n   */\r\n  function initialize (address _owner, address _renderTokenAddress) public isInitializer(\"Escrow\", \"0\") {\r\n    require(_owner != address(0), \"_owner must not be null\");\r\n    require(_renderTokenAddress != address(0), \"_renderTokenAddress must not be null\");\r\n    Ownable.initialize(_owner);\r\n    disbursalAddress = _owner;\r\n    renderTokenAddress = _renderTokenAddress;\r\n  }\r\n\r\n  /**\r\n   * @dev Change the address authorized to distribute tokens for completed jobs\r\n   *\r\n   * Because there are no on-chain details to indicate who performed a render, an outside\r\n   * system must call the disburseJob function with the information needed to properly\r\n   * distribute tokens. This function updates the address with the authority to perform distributions\r\n   * @param _newDisbursalAddress see disbursalAddress\r\n   */\r\n  function changeDisbursalAddress(address _newDisbursalAddress) external onlyOwner {\r\n    disbursalAddress = _newDisbursalAddress;\r\n\r\n    emit DisbursalAddressUpdate(disbursalAddress);\r\n  }\r\n\r\n  /**\r\n   * @dev Change the address allowances will be sent to after job completion\r\n   *\r\n   * Ideally, this will not be used, but is included as a failsafe.\r\n   * RNDR is still in its infancy, and changes may need to be made to this\r\n   * contract and / or the renderToken contract. Including methods to update the\r\n   * addresses allows the contracts to update independently.\r\n   * If the RNDR token contract is ever migrated to another address for\r\n   * either added security or functionality, this will need to be called.\r\n   * @param _newRenderTokenAddress see renderTokenAddress\r\n   */\r\n  function changeRenderTokenAddress(address _newRenderTokenAddress) external onlyOwner {\r\n    require(_newRenderTokenAddress != address(0), \"_newRenderTokenAddress must not be null\");\r\n    renderTokenAddress = _newRenderTokenAddress;\r\n\r\n    emit RenderTokenAddressUpdate(renderTokenAddress);\r\n  }\r\n\r\n  /**\r\n   * @dev Send allowances to node(s) that performed a job\r\n   *\r\n   * This can only be called by the disbursalAddress, an accound owned\r\n   * by OTOY, and it provides the number of tokens to send to each node\r\n   * @param _jobId the ID of the job used in the jobBalances mapping\r\n   * @param _recipients the address(es) of the nodes that performed rendering\r\n   * @param _amounts the amount(s) to send to each address. These must be in the same\r\n   * order as the recipient addresses\r\n   */\r\n  function disburseJob(string _jobId, address[] _recipients, uint256[] _amounts) external canDisburse {\r\n    require(jobBalances[_jobId] > 0, \"_jobId has no available balance\");\r\n    require(_recipients.length == _amounts.length, \"_recipients and _amounts must be the same length\");\r\n\r\n    for(uint256 i = 0; i < _recipients.length; i++) {\r\n      jobBalances[_jobId] = jobBalances[_jobId].sub(_amounts[i]);\r\n      ERC20(renderTokenAddress).safeTransfer(_recipients[i], _amounts[i]);\r\n    }\r\n\r\n    emit JobBalanceUpdate(_jobId, jobBalances[_jobId]);\r\n  }\r\n\r\n  /**\r\n   * @dev Add RNDR tokens to a job\r\n   *\r\n   * This can only be called by a function on the RNDR token contract\r\n   * @param _jobId the ID of the job used in the jobBalances mapping\r\n   * @param _tokens the number of tokens sent by the artist to fund the job\r\n   */\r\n  function fundJob(string _jobId, uint256 _tokens) external {\r\n    // Jobs can only be created by the address stored in the renderTokenAddress variable\r\n    require(msg.sender == renderTokenAddress, \"message sender not authorized\");\r\n    jobBalances[_jobId] = jobBalances[_jobId].add(_tokens);\r\n\r\n    emit JobBalanceUpdate(_jobId, jobBalances[_jobId]);\r\n  }\r\n\r\n  /**\r\n   * @dev See the tokens available for a job\r\n   *\r\n   * @param _jobId the ID used to lookup the job balance\r\n   */\r\n  function jobBalance(string _jobId) external view returns(uint256) {\r\n    return jobBalances[_jobId];\r\n  }\r\n\r\n}\r\n",
  "sourcePath": "/d/Repos/RNDR-Token/contracts/Escrow.sol",
  "compiler": {
    "name": "solc",
    "version": "0.4.26+commit.4563c3fc.Emscripten.clang"
  },
  "schemaVersion": "2.0.3",
  "updatedAt": "2021-02-18T18:46:34.701Z"
}