{
  "contractName": "EscrowMatic",
  "abi": [
    {
      "inputs": [],
      "stateMutability": "nonpayable",
      "type": "constructor"
    },
    {
      "anonymous": false,
      "inputs": [
        {
          "indexed": false,
          "internalType": "address",
          "name": "disbursalAddress",
          "type": "address"
        }
      ],
      "name": "DisbursalAddressUpdate",
      "type": "event"
    },
    {
      "anonymous": false,
      "inputs": [
        {
          "indexed": true,
          "internalType": "address",
          "name": "previousOwner",
          "type": "address"
        },
        {
          "indexed": true,
          "internalType": "address",
          "name": "newOwner",
          "type": "address"
        }
      ],
      "name": "OwnershipTransferred",
      "type": "event"
    },
    {
      "anonymous": false,
      "inputs": [
        {
          "indexed": false,
          "internalType": "address",
          "name": "renderTokenAddress",
          "type": "address"
        }
      ],
      "name": "RenderTokenAddressUpdate",
      "type": "event"
    },
    {
      "anonymous": false,
      "inputs": [
        {
          "indexed": false,
          "internalType": "string",
          "name": "_userId",
          "type": "string"
        },
        {
          "indexed": false,
          "internalType": "uint256",
          "name": "_balance",
          "type": "uint256"
        }
      ],
      "name": "UserBalanceUpdate",
      "type": "event"
    },
    {
      "inputs": [],
      "name": "disbursalAddress",
      "outputs": [
        {
          "internalType": "address",
          "name": "",
          "type": "address"
        }
      ],
      "stateMutability": "view",
      "type": "function"
    },
    {
      "inputs": [],
      "name": "owner",
      "outputs": [
        {
          "internalType": "address",
          "name": "",
          "type": "address"
        }
      ],
      "stateMutability": "view",
      "type": "function"
    },
    {
      "inputs": [],
      "name": "renderTokenAddress",
      "outputs": [
        {
          "internalType": "address",
          "name": "",
          "type": "address"
        }
      ],
      "stateMutability": "view",
      "type": "function"
    },
    {
      "inputs": [],
      "name": "renounceOwnership",
      "outputs": [],
      "stateMutability": "nonpayable",
      "type": "function"
    },
    {
      "inputs": [
        {
          "internalType": "address",
          "name": "newOwner",
          "type": "address"
        }
      ],
      "name": "transferOwnership",
      "outputs": [],
      "stateMutability": "nonpayable",
      "type": "function"
    },
    {
      "inputs": [
        {
          "internalType": "address",
          "name": "_owner",
          "type": "address"
        },
        {
          "internalType": "address",
          "name": "_renderTokenAddress",
          "type": "address"
        }
      ],
      "name": "initialize",
      "outputs": [],
      "stateMutability": "nonpayable",
      "type": "function"
    },
    {
      "inputs": [
        {
          "internalType": "address",
          "name": "_newDisbursalAddress",
          "type": "address"
        }
      ],
      "name": "changeDisbursalAddress",
      "outputs": [],
      "stateMutability": "nonpayable",
      "type": "function"
    },
    {
      "inputs": [
        {
          "internalType": "address",
          "name": "_newRenderTokenAddress",
          "type": "address"
        }
      ],
      "name": "changeRenderTokenAddress",
      "outputs": [],
      "stateMutability": "nonpayable",
      "type": "function"
    },
    {
      "inputs": [
        {
          "internalType": "string",
          "name": "_userId",
          "type": "string"
        },
        {
          "internalType": "address[]",
          "name": "_recipients",
          "type": "address[]"
        },
        {
          "internalType": "uint256[]",
          "name": "_amounts",
          "type": "uint256[]"
        }
      ],
      "name": "disburseFunds",
      "outputs": [],
      "stateMutability": "nonpayable",
      "type": "function"
    },
    {
      "inputs": [
        {
          "internalType": "string",
          "name": "_userId",
          "type": "string"
        },
        {
          "internalType": "uint256",
          "name": "_tokens",
          "type": "uint256"
        }
      ],
      "name": "fundUser",
      "outputs": [],
      "stateMutability": "nonpayable",
      "type": "function"
    },
    {
      "inputs": [
        {
          "internalType": "string",
          "name": "_userId",
          "type": "string"
        }
      ],
      "name": "userBalance",
      "outputs": [
        {
          "internalType": "uint256",
          "name": "",
          "type": "uint256"
        }
      ],
      "stateMutability": "view",
      "type": "function"
    }
  ],
  "bytecode": "0x60806040523480156200001157600080fd5b506200001f60018062000025565b6200055e565b600054610100900460ff168062000041575062000041620001c4565b8062000050575060005460ff16155b6200008d5760405162461bcd60e51b815260040180806020018281038252602e81526020018062001dee602e913960400191505060405180910390fd5b600054610100900460ff16158015620000b9576000805460ff1961ff0019909116610100171660011790555b6001600160a01b03831662000115576040805162461bcd60e51b815260206004820152601760248201527f5f6f776e6572206d757374206e6f74206265206e756c6c000000000000000000604482015290519081900360640190fd5b6001600160a01b0382166200015c5760405162461bcd60e51b815260040180806020018281038252602481526020018062001dca6024913960400191505060405180910390fd5b62000166620001e2565b6200017c83620002a060201b62000e151760201c565b606780546001600160a01b038086166001600160a01b03199283161790925560668054928516929091169190911790558015620001bf576000805461ff00191690555b505050565b6000620001dc30620003ab60201b62000f831760201c565b15905090565b600054610100900460ff1680620001fe5750620001fe620001c4565b806200020d575060005460ff16155b6200024a5760405162461bcd60e51b815260040180806020018281038252602e81526020018062001dee602e913960400191505060405180910390fd5b600054610100900460ff1615801562000276576000805460ff1961ff0019909116610100171660011790555b62000280620003b1565b6200028a62000459565b80156200029d576000805461ff00191690555b50565b620002aa6200054b565b6001600160a01b0316620002bd6200054f565b6001600160a01b03161462000319576040805162461bcd60e51b815260206004820181905260248201527f4f776e61626c653a2063616c6c6572206973206e6f7420746865206f776e6572604482015290519081900360640190fd5b6001600160a01b038116620003605760405162461bcd60e51b815260040180806020018281038252602681526020018062001da46026913960400191505060405180910390fd5b6033546040516001600160a01b0380841692169060008051602062001e1c83398151915290600090a3603380546001600160a01b0319166001600160a01b0392909216919091179055565b3b151590565b600054610100900460ff1680620003cd5750620003cd620001c4565b80620003dc575060005460ff16155b620004195760405162461bcd60e51b815260040180806020018281038252602e81526020018062001dee602e913960400191505060405180910390fd5b600054610100900460ff161580156200028a576000805460ff1961ff00199091166101001716600117905580156200029d576000805461ff001916905550565b600054610100900460ff168062000475575062000475620001c4565b8062000484575060005460ff16155b620004c15760405162461bcd60e51b815260040180806020018281038252602e81526020018062001dee602e913960400191505060405180910390fd5b600054610100900460ff16158015620004ed576000805460ff1961ff0019909116610100171660011790555b6000620004f96200054b565b603380546001600160a01b0319166001600160a01b0383169081179091556040519192509060009060008051602062001e1c833981519152908290a35080156200029d576000805461ff001916905550565b3390565b6033546001600160a01b031690565b611836806200056e6000396000f3fe608060405234801561001057600080fd5b50600436106100c95760003560e01c806378a45abe11610081578063c0b34d8a1161005b578063c0b34d8a14610385578063e39270e8146103b8578063f2fde38b146103c0576100c9565b806378a45abe146102365780638da5cb5b1461034a5780639d69db0a14610352576100c9565b8063485cc955116100b2578063485cc955146101c25780635018e991146101fd578063715018a61461022e576100c9565b80631536aedd146100ce57806316a0b0f914610150575b600080fd5b61013e600480360360208110156100e457600080fd5b8101906020810181356401000000008111156100ff57600080fd5b82018360208201111561011157600080fd5b8035906020019184600183028401116401000000008311171561013357600080fd5b5090925090506103f3565b60408051918252519081900360200190f35b6101c06004803603604081101561016657600080fd5b81019060208101813564010000000081111561018157600080fd5b82018360208201111561019357600080fd5b803590602001918460018302840111640100000000831117156101b557600080fd5b919350915035610424565b005b6101c0600480360360408110156101d857600080fd5b5073ffffffffffffffffffffffffffffffffffffffff813581169160200135166105b6565b610205610798565b6040805173ffffffffffffffffffffffffffffffffffffffff9092168252519081900360200190f35b6101c06107b4565b6101c06004803603606081101561024c57600080fd5b81019060208101813564010000000081111561026757600080fd5b82018360208201111561027957600080fd5b8035906020019184600183028401116401000000008311171561029b57600080fd5b9193909290916020810190356401000000008111156102b957600080fd5b8201836020820111156102cb57600080fd5b803590602001918460208302840111640100000000831117156102ed57600080fd5b91939092909160208101903564010000000081111561030b57600080fd5b82018360208201111561031d57600080fd5b8035906020019184602083028401116401000000008311171561033f57600080fd5b5090925090506108b1565b610205610b71565b6101c06004803603602081101561036857600080fd5b503573ffffffffffffffffffffffffffffffffffffffff16610b8d565b6101c06004803603602081101561039b57600080fd5b503573ffffffffffffffffffffffffffffffffffffffff16610c9a565b610205610df9565b6101c0600480360360208110156103d657600080fd5b503573ffffffffffffffffffffffffffffffffffffffff16610e15565b6000606583836040518083838082843791909101948552505060405192839003602001909220549250505092915050565b60665473ffffffffffffffffffffffffffffffffffffffff16610445610f89565b73ffffffffffffffffffffffffffffffffffffffff16146104ad576040805162461bcd60e51b815260206004820152601d60248201527f6d6573736167652073656e646572206e6f7420617574686f72697a6564000000604482015290519081900360640190fd5b6104df816065858560405180838380828437919091019485525050604051928390036020019092205492915050610f8d565b606584846040518083838082843780830192505050925050509081526020016040518091039020819055507fe519df2c492f4096fafd5c75c357bfa528592fe2ed7777b3110931320a5c8f4183836065868660405180838380828437919091019485525050604080516020948190038501812054948101859052818152908101859052915081905060608101858580828437600083820152604051601f9091017fffffffffffffffffffffffffffffffffffffffffffffffffffffffffffffffe016909201829003965090945050505050a1505050565b600054610100900460ff16806105cf57506105cf610fee565b806105dd575060005460ff16155b6106185760405162461bcd60e51b815260040180806020018281038252602e815260200180611752602e913960400191505060405180910390fd5b600054610100900460ff1615801561066157600080547fffffffffffffffffffffffffffffffffffffffffffffffffffffffffffffff0061ff0019909116610100171660011790555b73ffffffffffffffffffffffffffffffffffffffff83166106c9576040805162461bcd60e51b815260206004820152601760248201527f5f6f776e6572206d757374206e6f74206265206e756c6c000000000000000000604482015290519081900360640190fd5b73ffffffffffffffffffffffffffffffffffffffff821661071b5760405162461bcd60e51b81526004018080602001828103825260248152602001806117086024913960400191505060405180910390fd5b610723610fff565b61072c83610e15565b6067805473ffffffffffffffffffffffffffffffffffffffff8086167fffffffffffffffffffffffff00000000000000000000000000000000000000009283161790925560668054928516929091169190911790558015610793576000805461ff00191690555b505050565b60675473ffffffffffffffffffffffffffffffffffffffff1681565b6107bc610f89565b73ffffffffffffffffffffffffffffffffffffffff166107da610b71565b73ffffffffffffffffffffffffffffffffffffffff1614610842576040805162461bcd60e51b815260206004820181905260248201527f4f776e61626c653a2063616c6c6572206973206e6f7420746865206f776e6572604482015290519081900360640190fd5b60335460405160009173ffffffffffffffffffffffffffffffffffffffff16907f8be0079c531659141344cd1fd0a4f28419497f9722a3daafe3b4186f6b6457e0908390a3603380547fffffffffffffffffffffffff0000000000000000000000000000000000000000169055565b60675473ffffffffffffffffffffffffffffffffffffffff166108d2610f89565b73ffffffffffffffffffffffffffffffffffffffff16146109245760405162461bcd60e51b815260040180806020018281038252602f8152602001806116b3602f913960400191505060405180910390fd5b600060658787604051808383808284378083019250505092505050908152602001604051809103902054116109a0576040805162461bcd60e51b815260206004820181905260248201527f5f75736572496420686173206e6f20617661696c61626c652062616c616e6365604482015290519081900360640190fd5b8281146109de5760405162461bcd60e51b81526004018080602001828103825260308152602001806117d16030913960400191505060405180910390fd5b60005b83811015610ac157610a2d8383838181106109f857fe5b9050602002013560658989604051808383808284379190910194855250506040519283900360200190922054929150506110cf565b60658888604051808383808284378083019250505092505050908152602001604051809103902081905550610ab9858583818110610a6757fe5b9050602002013573ffffffffffffffffffffffffffffffffffffffff16848484818110610a9057fe5b60665473ffffffffffffffffffffffffffffffffffffffff16939260209091020135905061112c565b6001016109e1565b507fe519df2c492f4096fafd5c75c357bfa528592fe2ed7777b3110931320a5c8f4186866065898960405180838380828437919091019485525050604080516020948190038501812054948101859052818152908101859052915081905060608101858580828437600083820152604051601f9091017fffffffffffffffffffffffffffffffffffffffffffffffffffffffffffffffe016909201829003965090945050505050a1505050505050565b60335473ffffffffffffffffffffffffffffffffffffffff1690565b610b95610f89565b73ffffffffffffffffffffffffffffffffffffffff16610bb3610b71565b73ffffffffffffffffffffffffffffffffffffffff1614610c1b576040805162461bcd60e51b815260206004820181905260248201527f4f776e61626c653a2063616c6c6572206973206e6f7420746865206f776e6572604482015290519081900360640190fd5b606780547fffffffffffffffffffffffff00000000000000000000000000000000000000001673ffffffffffffffffffffffffffffffffffffffff838116919091179182905560408051929091168252517f2e03f52e5dcb43c7f4a5b2c3dcf187b42f30cf1a27d3a3f3b0d045203f0ee103916020908290030190a150565b610ca2610f89565b73ffffffffffffffffffffffffffffffffffffffff16610cc0610b71565b73ffffffffffffffffffffffffffffffffffffffff1614610d28576040805162461bcd60e51b815260206004820181905260248201527f4f776e61626c653a2063616c6c6572206973206e6f7420746865206f776e6572604482015290519081900360640190fd5b73ffffffffffffffffffffffffffffffffffffffff8116610d7a5760405162461bcd60e51b81526004018080602001828103825260278152602001806117806027913960400191505060405180910390fd5b606680547fffffffffffffffffffffffff00000000000000000000000000000000000000001673ffffffffffffffffffffffffffffffffffffffff838116919091179182905560408051929091168252517f1b35e0d2dddbf5a171758490bc40c4ff488846a9d565fdef60fd8ee147dfb43b916020908290030190a150565b60665473ffffffffffffffffffffffffffffffffffffffff1681565b610e1d610f89565b73ffffffffffffffffffffffffffffffffffffffff16610e3b610b71565b73ffffffffffffffffffffffffffffffffffffffff1614610ea3576040805162461bcd60e51b815260206004820181905260248201527f4f776e61626c653a2063616c6c6572206973206e6f7420746865206f776e6572604482015290519081900360640190fd5b73ffffffffffffffffffffffffffffffffffffffff8116610ef55760405162461bcd60e51b81526004018080602001828103825260268152602001806116e26026913960400191505060405180910390fd5b60335460405173ffffffffffffffffffffffffffffffffffffffff8084169216907f8be0079c531659141344cd1fd0a4f28419497f9722a3daafe3b4186f6b6457e090600090a3603380547fffffffffffffffffffffffff00000000000000000000000000000000000000001673ffffffffffffffffffffffffffffffffffffffff92909216919091179055565b3b151590565b3390565b600082820183811015610fe7576040805162461bcd60e51b815260206004820152601b60248201527f536166654d6174683a206164646974696f6e206f766572666c6f770000000000604482015290519081900360640190fd5b9392505050565b6000610ff930610f83565b15905090565b600054610100900460ff16806110185750611018610fee565b80611026575060005460ff16155b6110615760405162461bcd60e51b815260040180806020018281038252602e815260200180611752602e913960400191505060405180910390fd5b600054610100900460ff161580156110aa57600080547fffffffffffffffffffffffffffffffffffffffffffffffffffffffffffffff0061ff0019909116610100171660011790555b6110b26111b9565b6110ba611277565b80156110cc576000805461ff00191690555b50565b600082821115611126576040805162461bcd60e51b815260206004820152601e60248201527f536166654d6174683a207375627472616374696f6e206f766572666c6f770000604482015290519081900360640190fd5b50900390565b6040805173ffffffffffffffffffffffffffffffffffffffff8416602482015260448082018490528251808303909101815260649091019091526020810180517bffffffffffffffffffffffffffffffffffffffffffffffffffffffff167fa9059cbb000000000000000000000000000000000000000000000000000000001790526107939084906113b3565b600054610100900460ff16806111d257506111d2610fee565b806111e0575060005460ff16155b61121b5760405162461bcd60e51b815260040180806020018281038252602e815260200180611752602e913960400191505060405180910390fd5b600054610100900460ff161580156110ba57600080547fffffffffffffffffffffffffffffffffffffffffffffffffffffffffffffff0061ff00199091166101001716600117905580156110cc576000805461ff001916905550565b600054610100900460ff16806112905750611290610fee565b8061129e575060005460ff16155b6112d95760405162461bcd60e51b815260040180806020018281038252602e815260200180611752602e913960400191505060405180910390fd5b600054610100900460ff1615801561132257600080547fffffffffffffffffffffffffffffffffffffffffffffffffffffffffffffff0061ff0019909116610100171660011790555b600061132c610f89565b603380547fffffffffffffffffffffffff00000000000000000000000000000000000000001673ffffffffffffffffffffffffffffffffffffffff8316908117909155604051919250906000907f8be0079c531659141344cd1fd0a4f28419497f9722a3daafe3b4186f6b6457e0908290a35080156110cc576000805461ff001916905550565b6000611415826040518060400160405280602081526020017f5361666545524332303a206c6f772d6c6576656c2063616c6c206661696c65648152508573ffffffffffffffffffffffffffffffffffffffff166114719092919063ffffffff16565b8051909150156107935780806020019051602081101561143457600080fd5b50516107935760405162461bcd60e51b815260040180806020018281038252602a8152602001806117a7602a913960400191505060405180910390fd5b60606114808484600085611488565b949350505050565b6060824710156114c95760405162461bcd60e51b815260040180806020018281038252602681526020018061172c6026913960400191505060405180910390fd5b6114d285610f83565b611523576040805162461bcd60e51b815260206004820152601d60248201527f416464726573733a2063616c6c20746f206e6f6e2d636f6e7472616374000000604482015290519081900360640190fd5b6000808673ffffffffffffffffffffffffffffffffffffffff1685876040518082805190602001908083835b6020831061158c57805182527fffffffffffffffffffffffffffffffffffffffffffffffffffffffffffffffe0909201916020918201910161154f565b6001836020036101000a03801982511681845116808217855250505050505090500191505060006040518083038185875af1925050503d80600081146115ee576040519150601f19603f3d011682016040523d82523d6000602084013e6115f3565b606091505b509150915061160382828661160e565b979650505050505050565b6060831561161d575081610fe7565b82511561162d5782518084602001fd5b8160405162461bcd60e51b81526004018080602001828103825283818151815260200191508051906020019080838360005b8381101561167757818101518382015260200161165f565b50505050905090810190601f1680156116a45780820380516001836020036101000a031916815260200191505b509250505060405180910390fdfe6d6573736167652073656e646572206e6f7420617574686f72697a656420746f2064697362757273652066756e64734f776e61626c653a206e6577206f776e657220697320746865207a65726f20616464726573735f72656e646572546f6b656e41646472657373206d757374206e6f74206265206e756c6c416464726573733a20696e73756666696369656e742062616c616e636520666f722063616c6c496e697469616c697a61626c653a20636f6e747261637420697320616c726561647920696e697469616c697a65645f6e657752656e646572546f6b656e41646472657373206d757374206e6f74206265206e756c6c5361666545524332303a204552433230206f7065726174696f6e20646964206e6f7420737563636565645f726563697069656e747320616e64205f616d6f756e7473206d757374206265207468652073616d65206c656e677468a2646970667358221220da6c6504309edddb54e87785b05d7c142d84d37e6d9c8d870d8b353794205dff64736f6c634300070600334f776e61626c653a206e6577206f776e657220697320746865207a65726f20616464726573735f72656e646572546f6b656e41646472657373206d757374206e6f74206265206e756c6c496e697469616c697a61626c653a20636f6e747261637420697320616c726561647920696e697469616c697a65648be0079c531659141344cd1fd0a4f28419497f9722a3daafe3b4186f6b6457e0",
  "immutableReferences": {},
  "source": "// SPDX-License-Identifier: MIT\r\npragma solidity ^0.7.6;\r\n\r\nimport \"@openzeppelin/contracts-upgradeable/token/ERC20/IERC20Upgradeable.sol\";\r\nimport \"@openzeppelin/contracts-upgradeable/token/ERC20/SafeERC20Upgradeable.sol\";\r\nimport \"@openzeppelin/contracts-upgradeable/access/OwnableUpgradeable.sol\";\r\nimport \"@openzeppelin/contracts-upgradeable/math/SafeMathUpgradeable.sol\";\r\n\r\n/**\r\n * @title Escrow\r\n * @dev Escrow contract that works with RNDR token\r\n * This contract holds tokens while render jobs are being completed\r\n * and information on token allottment per user\r\n */\r\ncontract Escrow is OwnableUpgradeable {\r\n  using SafeERC20Upgradeable for IERC20Upgradeable;\r\n  using SafeMathUpgradeable for uint256;\r\n\r\n  // This is a mapping of user IDs to the number of tokens held in escrow\r\n  mapping(string => uint256) private userBalances;\r\n  // This is the address of the render token contract\r\n  address public renderTokenAddress;\r\n  // This is the address with authority to call the disburseFunds function\r\n  address public disbursalAddress;\r\n\r\n  // Emit new disbursal address when disbursalAddress has been changed\r\n  event DisbursalAddressUpdate(address disbursalAddress);\r\n  // Emit the userId along with the new balance of the user escrow\r\n  // Internal systems will watch this event to determine balances available\r\n  event UserBalanceUpdate(string _userId, uint256 _balance);\r\n  // Emit new contract address when renderTokenAddress has been changed\r\n  event RenderTokenAddressUpdate(address renderTokenAddress);\r\n\r\n  /**\r\n   * @dev Modifier to check if the message sender can call the disburseFunds function\r\n   */\r\n  modifier canDisburse() {\r\n    require(_msgSender() == disbursalAddress, \"message sender not authorized to disburse funds\");\r\n    _;\r\n  }\r\n\r\n  /**\r\n   * @dev Calling initialize in logic implementation contract\r\n   */\r\n  constructor() {\r\n    initialize(address(1), address(1));\r\n  }\r\n\r\n  /**\r\n   * @dev Initailization\r\n   * @param _owner because this contract uses proxies, owner must be passed in as a param\r\n   * @param _renderTokenAddress see renderTokenAddress\r\n   */\r\n  function initialize (address _owner, address _renderTokenAddress) public initializer {\r\n    require(_owner != address(0), \"_owner must not be null\");\r\n    require(_renderTokenAddress != address(0), \"_renderTokenAddress must not be null\");\r\n    __Ownable_init();\r\n    OwnableUpgradeable.transferOwnership(_owner);\r\n    disbursalAddress = _owner;\r\n    renderTokenAddress = _renderTokenAddress;\r\n  }\r\n\r\n  /**\r\n   * @dev Change the address authorized to distribute tokens for completed jobs\r\n   *\r\n   * Because there are no on-chain details to indicate who performed a render, an outside\r\n   * system must call the disburseFunds function with the information needed to properly\r\n   * distribute tokens. This function updates the address with the authority to perform distributions\r\n   * @param _newDisbursalAddress see disbursalAddress\r\n   */\r\n  function changeDisbursalAddress(address _newDisbursalAddress) external onlyOwner {\r\n    disbursalAddress = _newDisbursalAddress;\r\n\r\n    emit DisbursalAddressUpdate(disbursalAddress);\r\n  }\r\n\r\n  /**\r\n   * @dev Change the address allowances will be sent to after job completion\r\n   *\r\n   * Ideally, this will not be used, but is included as a failsafe.\r\n   * RNDR is still in its infancy, and changes may need to be made to this\r\n   * contract and / or the renderToken contract. Including methods to update the\r\n   * addresses allows the contracts to update independently.\r\n   * If the RNDR token contract is ever migrated to another address for\r\n   * either added security or functionality, this will need to be called.\r\n   * @param _newRenderTokenAddress see renderTokenAddress\r\n   */\r\n  function changeRenderTokenAddress(address _newRenderTokenAddress) external onlyOwner {\r\n    require(_newRenderTokenAddress != address(0), \"_newRenderTokenAddress must not be null\");\r\n    renderTokenAddress = _newRenderTokenAddress;\r\n\r\n    emit RenderTokenAddressUpdate(renderTokenAddress);\r\n  }\r\n\r\n  /**\r\n   * @dev Send allowances to node(s) that performed a job\r\n   *\r\n   * This can only be called by the disbursalAddress, an accound owned\r\n   * by OTOY, and it provides the number of tokens to send to each node\r\n   * @param _userId the ID of the user used in the userBalances mapping\r\n   * @param _recipients the address(es) of the nodes that performed rendering\r\n   * @param _amounts the amount(s) to send to each address. These must be in the same\r\n   * order as the recipient addresses\r\n   */\r\n  function disburseFunds(string calldata _userId, address[] calldata _recipients, uint256[] calldata _amounts) external canDisburse {\r\n    require(userBalances[_userId] > 0, \"_userId has no available balance\");\r\n    require(_recipients.length == _amounts.length, \"_recipients and _amounts must be the same length\");\r\n\r\n    for(uint256 i = 0; i < _recipients.length; i++) {\r\n      userBalances[_userId] = userBalances[_userId].sub(_amounts[i]);\r\n      IERC20Upgradeable(renderTokenAddress).safeTransfer(_recipients[i], _amounts[i]);\r\n    }\r\n\r\n    emit UserBalanceUpdate(_userId, userBalances[_userId]);\r\n  }\r\n\r\n  /**\r\n   * @dev Add RNDR tokens to a user escrow balance\r\n   *\r\n   * This can only be called by a function on the RNDR token contract\r\n   * @param _userId the ID of the uesr used in the userBalances mapping\r\n   * @param _tokens the number of tokens sent by the artist\r\n   */\r\n  function fundUser(string calldata _userId, uint256 _tokens) external {\r\n    // This function can only be called by the address stored in the renderTokenAddress variable\r\n    require(_msgSender() == renderTokenAddress, \"message sender not authorized\");\r\n    userBalances[_userId] = userBalances[_userId].add(_tokens);\r\n\r\n    emit UserBalanceUpdate(_userId, userBalances[_userId]);\r\n  }\r\n\r\n  /**\r\n   * @dev See the tokens available in user escrow\r\n   *\r\n   * @param _userId the ID used to lookup the user escrow balance\r\n   */\r\n  function userBalance(string calldata _userId) external view returns(uint256) {\r\n    return userBalances[_userId];\r\n  }\r\n\r\n}\r\n",
  "sourcePath": "/d/Repos/rndr-testnet/contracts/EscrowMatic.sol",
  "compiler": {
    "name": "solc",
    "version": "0.7.6+commit.7338295f.Emscripten.clang"
  },
  "schemaVersion": "3.3.4",
  "updatedAt": "2021-02-19T18:06:10.107Z",
  "devdoc": {
    "details": "Escrow contract that works with RNDR token This contract holds tokens while render jobs are being completed and information on token allottment per user",
    "kind": "dev",
    "methods": {
      "changeDisbursalAddress(address)": {
        "details": "Change the address authorized to distribute tokens for completed jobs Because there are no on-chain details to indicate who performed a render, an outside system must call the disburseFunds function with the information needed to properly distribute tokens. This function updates the address with the authority to perform distributions",
        "params": {
          "_newDisbursalAddress": "see disbursalAddress"
        }
      },
      "changeRenderTokenAddress(address)": {
        "details": "Change the address allowances will be sent to after job completion Ideally, this will not be used, but is included as a failsafe. RNDR is still in its infancy, and changes may need to be made to this contract and / or the renderToken contract. Including methods to update the addresses allows the contracts to update independently. If the RNDR token contract is ever migrated to another address for either added security or functionality, this will need to be called.",
        "params": {
          "_newRenderTokenAddress": "see renderTokenAddress"
        }
      },
      "constructor": {
        "details": "Calling initialize in logic implementation contract"
      },
      "disburseFunds(string,address[],uint256[])": {
        "details": "Send allowances to node(s) that performed a job This can only be called by the disbursalAddress, an accound owned by OTOY, and it provides the number of tokens to send to each node",
        "params": {
          "_amounts": "the amount(s) to send to each address. These must be in the same order as the recipient addresses",
          "_recipients": "the address(es) of the nodes that performed rendering",
          "_userId": "the ID of the user used in the userBalances mapping"
        }
      },
      "fundUser(string,uint256)": {
        "details": "Add RNDR tokens to a user escrow balance This can only be called by a function on the RNDR token contract",
        "params": {
          "_tokens": "the number of tokens sent by the artist",
          "_userId": "the ID of the uesr used in the userBalances mapping"
        }
      },
      "initialize(address,address)": {
        "details": "Initailization",
        "params": {
          "_owner": "because this contract uses proxies, owner must be passed in as a param",
          "_renderTokenAddress": "see renderTokenAddress"
        }
      },
      "owner()": {
        "details": "Returns the address of the current owner."
      },
      "renounceOwnership()": {
        "details": "Leaves the contract without owner. It will not be possible to call `onlyOwner` functions anymore. Can only be called by the current owner. NOTE: Renouncing ownership will leave the contract without an owner, thereby removing any functionality that is only available to the owner."
      },
      "transferOwnership(address)": {
        "details": "Transfers ownership of the contract to a new account (`newOwner`). Can only be called by the current owner."
      },
      "userBalance(string)": {
        "details": "See the tokens available in user escrow",
        "params": {
          "_userId": "the ID used to lookup the user escrow balance"
        }
      }
    },
    "title": "EscrowMatic",
    "version": 1
  },
  "userdoc": {
    "kind": "user",
    "methods": {},
    "version": 1
  }
}