{
  "contractName": "RenderTokenMatic",
  "abi": [
    {
      "inputs": [],
      "stateMutability": "nonpayable",
      "type": "constructor"
    },
    {
      "anonymous": false,
      "inputs": [
        {
          "indexed": true,
          "internalType": "address",
          "name": "owner",
          "type": "address"
        },
        {
          "indexed": true,
          "internalType": "address",
          "name": "spender",
          "type": "address"
        },
        {
          "indexed": false,
          "internalType": "uint256",
          "name": "value",
          "type": "uint256"
        }
      ],
      "name": "Approval",
      "type": "event"
    },
    {
      "anonymous": false,
      "inputs": [
        {
          "indexed": false,
          "internalType": "address",
          "name": "escrowContractAddress",
          "type": "address"
        }
      ],
      "name": "EscrowContractAddressUpdate",
      "type": "event"
    },
    {
      "anonymous": false,
      "inputs": [
        {
          "indexed": true,
          "internalType": "address",
          "name": "previousOwner",
          "type": "address"
        },
        {
          "indexed": true,
          "internalType": "address",
          "name": "newOwner",
          "type": "address"
        }
      ],
      "name": "OwnershipTransferred",
      "type": "event"
    },
    {
      "anonymous": false,
      "inputs": [
        {
          "indexed": true,
          "internalType": "address",
          "name": "sender",
          "type": "address"
        },
        {
          "indexed": false,
          "internalType": "string",
          "name": "userId",
          "type": "string"
        },
        {
          "indexed": false,
          "internalType": "uint256",
          "name": "amount",
          "type": "uint256"
        }
      ],
      "name": "TokensEscrowed",
      "type": "event"
    },
    {
      "anonymous": false,
      "inputs": [
        {
          "indexed": true,
          "internalType": "address",
          "name": "from",
          "type": "address"
        },
        {
          "indexed": true,
          "internalType": "address",
          "name": "to",
          "type": "address"
        },
        {
          "indexed": false,
          "internalType": "uint256",
          "name": "value",
          "type": "uint256"
        }
      ],
      "name": "Transfer",
      "type": "event"
    },
    {
      "inputs": [
        {
          "internalType": "address",
          "name": "owner",
          "type": "address"
        },
        {
          "internalType": "address",
          "name": "spender",
          "type": "address"
        }
      ],
      "name": "allowance",
      "outputs": [
        {
          "internalType": "uint256",
          "name": "",
          "type": "uint256"
        }
      ],
      "stateMutability": "view",
      "type": "function"
    },
    {
      "inputs": [
        {
          "internalType": "address",
          "name": "spender",
          "type": "address"
        },
        {
          "internalType": "uint256",
          "name": "amount",
          "type": "uint256"
        }
      ],
      "name": "approve",
      "outputs": [
        {
          "internalType": "bool",
          "name": "",
          "type": "bool"
        }
      ],
      "stateMutability": "nonpayable",
      "type": "function"
    },
    {
      "inputs": [
        {
          "internalType": "address",
          "name": "account",
          "type": "address"
        }
      ],
      "name": "balanceOf",
      "outputs": [
        {
          "internalType": "uint256",
          "name": "",
          "type": "uint256"
        }
      ],
      "stateMutability": "view",
      "type": "function"
    },
    {
      "inputs": [],
      "name": "childChainManagerProxy",
      "outputs": [
        {
          "internalType": "address",
          "name": "",
          "type": "address"
        }
      ],
      "stateMutability": "view",
      "type": "function"
    },
    {
      "inputs": [],
      "name": "decimals",
      "outputs": [
        {
          "internalType": "uint8",
          "name": "",
          "type": "uint8"
        }
      ],
      "stateMutability": "view",
      "type": "function"
    },
    {
      "inputs": [
        {
          "internalType": "address",
          "name": "spender",
          "type": "address"
        },
        {
          "internalType": "uint256",
          "name": "subtractedValue",
          "type": "uint256"
        }
      ],
      "name": "decreaseAllowance",
      "outputs": [
        {
          "internalType": "bool",
          "name": "",
          "type": "bool"
        }
      ],
      "stateMutability": "nonpayable",
      "type": "function"
    },
    {
      "inputs": [],
      "name": "escrowContractAddress",
      "outputs": [
        {
          "internalType": "address",
          "name": "",
          "type": "address"
        }
      ],
      "stateMutability": "view",
      "type": "function"
    },
    {
      "inputs": [
        {
          "internalType": "address",
          "name": "spender",
          "type": "address"
        },
        {
          "internalType": "uint256",
          "name": "addedValue",
          "type": "uint256"
        }
      ],
      "name": "increaseAllowance",
      "outputs": [
        {
          "internalType": "bool",
          "name": "",
          "type": "bool"
        }
      ],
      "stateMutability": "nonpayable",
      "type": "function"
    },
    {
      "inputs": [],
      "name": "name",
      "outputs": [
        {
          "internalType": "string",
          "name": "",
          "type": "string"
        }
      ],
      "stateMutability": "view",
      "type": "function"
    },
    {
      "inputs": [],
      "name": "owner",
      "outputs": [
        {
          "internalType": "address",
          "name": "",
          "type": "address"
        }
      ],
      "stateMutability": "view",
      "type": "function"
    },
    {
      "inputs": [],
      "name": "renounceOwnership",
      "outputs": [],
      "stateMutability": "nonpayable",
      "type": "function"
    },
    {
      "inputs": [],
      "name": "symbol",
      "outputs": [
        {
          "internalType": "string",
          "name": "",
          "type": "string"
        }
      ],
      "stateMutability": "view",
      "type": "function"
    },
    {
      "inputs": [],
      "name": "totalSupply",
      "outputs": [
        {
          "internalType": "uint256",
          "name": "",
          "type": "uint256"
        }
      ],
      "stateMutability": "view",
      "type": "function"
    },
    {
      "inputs": [
        {
          "internalType": "address",
          "name": "recipient",
          "type": "address"
        },
        {
          "internalType": "uint256",
          "name": "amount",
          "type": "uint256"
        }
      ],
      "name": "transfer",
      "outputs": [
        {
          "internalType": "bool",
          "name": "",
          "type": "bool"
        }
      ],
      "stateMutability": "nonpayable",
      "type": "function"
    },
    {
      "inputs": [
        {
          "internalType": "address",
          "name": "sender",
          "type": "address"
        },
        {
          "internalType": "address",
          "name": "recipient",
          "type": "address"
        },
        {
          "internalType": "uint256",
          "name": "amount",
          "type": "uint256"
        }
      ],
      "name": "transferFrom",
      "outputs": [
        {
          "internalType": "bool",
          "name": "",
          "type": "bool"
        }
      ],
      "stateMutability": "nonpayable",
      "type": "function"
    },
    {
      "inputs": [
        {
          "internalType": "address",
          "name": "newOwner",
          "type": "address"
        }
      ],
      "name": "transferOwnership",
      "outputs": [],
      "stateMutability": "nonpayable",
      "type": "function"
    },
    {
      "inputs": [
        {
          "internalType": "address",
          "name": "_owner",
          "type": "address"
        },
        {
          "internalType": "address",
          "name": "_childChainManagerProxy",
          "type": "address"
        },
        {
          "internalType": "string",
          "name": "_name",
          "type": "string"
        },
        {
          "internalType": "string",
          "name": "_symbol",
          "type": "string"
        }
      ],
      "name": "initialize",
      "outputs": [],
      "stateMutability": "nonpayable",
      "type": "function"
    },
    {
      "inputs": [
        {
          "internalType": "string",
          "name": "_userID",
          "type": "string"
        },
        {
          "internalType": "uint256",
          "name": "_amount",
          "type": "uint256"
        }
      ],
      "name": "holdInEscrow",
      "outputs": [],
      "stateMutability": "nonpayable",
      "type": "function"
    },
    {
      "inputs": [
        {
          "internalType": "address",
          "name": "_escrowAddress",
          "type": "address"
        }
      ],
      "name": "setEscrowContractAddress",
      "outputs": [],
      "stateMutability": "nonpayable",
      "type": "function"
    },
    {
      "inputs": [
        {
          "internalType": "address",
          "name": "newChildChainManagerProxy",
          "type": "address"
        }
      ],
      "name": "updateChildChainManager",
      "outputs": [],
      "stateMutability": "nonpayable",
      "type": "function"
    },
    {
      "inputs": [
        {
          "internalType": "address",
          "name": "user",
          "type": "address"
        },
        {
          "internalType": "bytes",
          "name": "depositData",
          "type": "bytes"
        }
      ],
      "name": "deposit",
      "outputs": [],
      "stateMutability": "nonpayable",
      "type": "function"
    },
    {
      "inputs": [
        {
          "internalType": "uint256",
          "name": "amount",
          "type": "uint256"
        }
      ],
      "name": "withdraw",
      "outputs": [],
      "stateMutability": "nonpayable",
      "type": "function"
    }
  ],
  "bytecode": "0x60806040523480156200001157600080fd5b5062000059600180604051806040016040528060018152602001603160f81b815250604051806040016040528060018152602001603160f81b8152506200005f60201b60201c565b62000727565b600054610100900460ff16806200007b57506200007b620001f7565b806200008a575060005460ff16155b620000c75760405162461bcd60e51b815260040180806020018281038252602e815260200180620024ee602e913960400191505060405180910390fd5b600054610100900460ff16158015620000f3576000805460ff1961ff0019909116610100171660011790555b6001600160a01b0385166200014f576040805162461bcd60e51b815260206004820152601760248201527f5f6f776e6572206d757374206e6f74206265206e756c6c000000000000000000604482015290519081900360640190fd5b6001600160a01b038416620001965760405162461bcd60e51b81526004018080602001828103825260288152602001806200253c6028913960400191505060405180910390fd5b620001a2838362000215565b620001ac620002d7565b620001c285620003ca60201b6200109d1760201c565b609880546001600160a01b0319166001600160a01b0386161790558015620001f0576000805461ff00191690555b5050505050565b60006200020f30620004d560201b620011ca1760201c565b15905090565b600054610100900460ff168062000231575062000231620001f7565b8062000240575060005460ff16155b6200027d5760405162461bcd60e51b815260040180806020018281038252602e815260200180620024ee602e913960400191505060405180910390fd5b600054610100900460ff16158015620002a9576000805460ff1961ff0019909116610100171660011790555b620002b3620004db565b620002bf838362000584565b8015620002d2576000805461ff00191690555b505050565b600054610100900460ff1680620002f35750620002f3620001f7565b8062000302575060005460ff16155b6200033f5760405162461bcd60e51b815260040180806020018281038252602e815260200180620024ee602e913960400191505060405180910390fd5b600054610100900460ff161580156200036b576000805460ff1961ff0019909116610100171660011790555b60006200037762000668565b606580546001600160a01b0319166001600160a01b038316908117909155604051919250906000906000805160206200251c833981519152908290a3508015620003c7576000805461ff00191690555b50565b620003d462000668565b6001600160a01b0316620003e76200066c565b6001600160a01b03161462000443576040805162461bcd60e51b815260206004820181905260248201527f4f776e61626c653a2063616c6c6572206973206e6f7420746865206f776e6572604482015290519081900360640190fd5b6001600160a01b0381166200048a5760405162461bcd60e51b8152600401808060200182810382526026815260200180620024c86026913960400191505060405180910390fd5b6065546040516001600160a01b038084169216906000805160206200251c83398151915290600090a3606580546001600160a01b0319166001600160a01b0392909216919091179055565b3b151590565b600054610100900460ff1680620004f75750620004f7620001f7565b8062000506575060005460ff16155b620005435760405162461bcd60e51b815260040180806020018281038252602e815260200180620024ee602e913960400191505060405180910390fd5b600054610100900460ff161580156200056f576000805460ff1961ff0019909116610100171660011790555b8015620003c7576000805461ff001916905550565b600054610100900460ff1680620005a05750620005a0620001f7565b80620005af575060005460ff16155b620005ec5760405162461bcd60e51b815260040180806020018281038252602e815260200180620024ee602e913960400191505060405180910390fd5b600054610100900460ff1615801562000618576000805460ff1961ff0019909116610100171660011790555b82516200062d9060369060208601906200067b565b508151620006439060379060208501906200067b565b506038805460ff191660121790558015620002d2576000805461ff0019169055505050565b3390565b6065546001600160a01b031690565b828054600181600116156101000203166002900490600052602060002090601f016020900481019282620006b35760008555620006fe565b82601f10620006ce57805160ff1916838001178555620006fe565b82800160010185558215620006fe579182015b82811115620006fe578251825591602001919060010190620006e1565b506200070c92915062000710565b5090565b5b808211156200070c576000815560010162000711565b611d9180620007376000396000f3fe608060405234801561001057600080fd5b50600436106101825760003560e01c806362f629e7116100d8578063a457c2d71161008c578063d226ae0811610066578063d226ae0814610639578063dd62ed3e14610641578063f2fde38b1461066f57610182565b8063a457c2d714610561578063a9059cbb1461058d578063cf2c52cb146105b957610182565b8063715018a6116100bd578063715018a6146105495780638da5cb5b1461055157806395d89b411461055957610182565b806362f629e7146104ff57806370a082311461052357610182565b806329fc99da1161013a5780633950935111610114578063395093511461043d578063445a679714610469578063448f643b1461048f57610182565b806329fc99da146103dc5780632e1a7d4d14610402578063313ce5671461041f57610182565b806318160ddd1161016b57806318160ddd146102445780632016a0d21461025e57806323b872dd146103a657610182565b806306fdde0314610187578063095ea7b314610204575b600080fd5b61018f610695565b6040805160208082528351818301528351919283929083019185019080838360005b838110156101c95781810151838201526020016101b1565b50505050905090810190601f1680156101f65780820380516001836020036101000a031916815260200191505b509250505060405180910390f35b6102306004803603604081101561021a57600080fd5b506001600160a01b038135169060200135610749565b604080519115158252519081900360200190f35b61024c610766565b60408051918252519081900360200190f35b6103a46004803603608081101561027457600080fd5b6001600160a01b0382358116926020810135909116918101906060810160408201356401000000008111156102a857600080fd5b8201836020820111156102ba57600080fd5b803590602001918460018302840111640100000000831117156102dc57600080fd5b91908080601f016020809104026020016040519081016040528093929190818152602001838380828437600092019190915250929594936020810193503591505064010000000081111561032f57600080fd5b82018360208201111561034157600080fd5b8035906020019184600183028401116401000000008311171561036357600080fd5b91908080601f01602080910402602001604051908101604052809392919081815260200183838082843760009201919091525092955061076c945050505050565b005b610230600480360360608110156103bc57600080fd5b506001600160a01b03813581169160208101359091169060400135610900565b6103a4600480360360208110156103f257600080fd5b50356001600160a01b0316610987565b6103a46004803603602081101561041857600080fd5b5035610ac8565b610427610adc565b6040805160ff9092168252519081900360200190f35b6102306004803603604081101561045357600080fd5b506001600160a01b038135169060200135610ae5565b6103a46004803603602081101561047f57600080fd5b50356001600160a01b0316610b33565b6103a4600480360360408110156104a557600080fd5b8101906020810181356401000000008111156104c057600080fd5b8201836020820111156104d257600080fd5b803590602001918460018302840111640100000000831117156104f457600080fd5b919350915035610c26565b610507610dc4565b604080516001600160a01b039092168252519081900360200190f35b61024c6004803603602081101561053957600080fd5b50356001600160a01b0316610dd3565b6103a4610dee565b610507610ec4565b61018f610ed3565b6102306004803603604081101561057757600080fd5b506001600160a01b038135169060200135610f52565b610230600480360360408110156105a357600080fd5b506001600160a01b038135169060200135610fba565b6103a4600480360360408110156105cf57600080fd5b6001600160a01b0382351691908101906040810160208201356401000000008111156105fa57600080fd5b82018360208201111561060c57600080fd5b8035906020019184600183028401116401000000008311171561062e57600080fd5b509092509050610fce565b610507611063565b61024c6004803603604081101561065757600080fd5b506001600160a01b0381358116916020013516611072565b6103a46004803603602081101561068557600080fd5b50356001600160a01b031661109d565b60368054604080516020601f60027fffffffffffffffffffffffffffffffffffffffffffffffffffffffffffffffff61010060018816150201909516949094049384018190048102820181019092528281526060939092909183018282801561073f5780601f106107145761010080835404028352916020019161073f565b820191906000526020600020905b81548152906001019060200180831161072257829003601f168201915b5050505050905090565b600061075d6107566111d0565b84846111d4565b50600192915050565b60355490565b600054610100900460ff168061078557506107856112c0565b80610793575060005460ff16155b6107ce5760405162461bcd60e51b815260040180806020018281038252602e815260200180611c4f602e913960400191505060405180910390fd5b600054610100900460ff161580156107f9576000805460ff1961ff0019909116610100171660011790555b6001600160a01b038516610854576040805162461bcd60e51b815260206004820152601760248201527f5f6f776e6572206d757374206e6f74206265206e756c6c000000000000000000604482015290519081900360640190fd5b6001600160a01b0384166108995760405162461bcd60e51b8152600401808060200182810382526028815260200180611ceb6028913960400191505060405180910390fd5b6108a383836112d1565b6108ab611387565b6108b48561109d565b609880547fffffffffffffffffffffffff0000000000000000000000000000000000000000166001600160a01b03861617905580156108f9576000805461ff00191690555b5050505050565b600061090d848484611498565b61097d846109196111d0565b61097885604051806060016040528060288152602001611c7d602891396001600160a01b038a166000908152603460205260408120906109576111d0565b6001600160a01b0316815260208101919091526040016000205491906115f5565b6111d4565b5060019392505050565b61098f6111d0565b6001600160a01b03166109a0610ec4565b6001600160a01b0316146109fb576040805162461bcd60e51b815260206004820181905260248201527f4f776e61626c653a2063616c6c6572206973206e6f7420746865206f776e6572604482015290519081900360640190fd5b6001600160a01b038116610a56576040805162461bcd60e51b815260206004820152601f60248201527f5f657363726f7741646472657373206d757374206e6f74206265206e756c6c00604482015290519081900360640190fd5b609780547fffffffffffffffffffffffff0000000000000000000000000000000000000000166001600160a01b03838116919091179182905560408051929091168252517fe6fedbb0ca24d3941dc4a12d0828506721f168790753ebe6c0983f1e508c575f916020908290030190a150565b610ad9610ad36111d0565b8261168c565b50565b60385460ff1690565b600061075d610af26111d0565b846109788560346000610b036111d0565b6001600160a01b03908116825260208083019390935260409182016000908120918c168152925290205490611788565b610b3b6111d0565b6001600160a01b0316610b4c610ec4565b6001600160a01b031614610ba7576040805162461bcd60e51b815260206004820181905260248201527f4f776e61626c653a2063616c6c6572206973206e6f7420746865206f776e6572604482015290519081900360640190fd5b6001600160a01b038116610bec5760405162461bcd60e51b8152600401808060200182810382526022815260200180611b986022913960400191505060405180910390fd5b609880547fffffffffffffffffffffffff0000000000000000000000000000000000000000166001600160a01b0392909216919091179055565b609754610c3c906001600160a01b031682610fba565b610c775760405162461bcd60e51b8152600401808060200182810382526027815260200180611c286027913960400191505060405180910390fd5b609754604080517f16a0b0f90000000000000000000000000000000000000000000000000000000081526024810184905260048101918252604481018590526001600160a01b03909216916316a0b0f9918691869186918190606401858580828437600081840152601f19601f820116905080830192505050945050505050600060405180830381600087803b158015610d1057600080fd5b505af1158015610d24573d6000803e3d6000fd5b50505050610d306111d0565b6001600160a01b03167fd25cf0decfa32e171787ff892bef2e16ce72fd045887ea9af9bd7f105ecd716284848460405180806020018381526020018281038252858582818152602001925080828437600083820152604051601f9091017fffffffffffffffffffffffffffffffffffffffffffffffffffffffffffffffe016909201829003965090945050505050a2505050565b6098546001600160a01b031681565b6001600160a01b031660009081526033602052604090205490565b610df66111d0565b6001600160a01b0316610e07610ec4565b6001600160a01b031614610e62576040805162461bcd60e51b815260206004820181905260248201527f4f776e61626c653a2063616c6c6572206973206e6f7420746865206f776e6572604482015290519081900360640190fd5b6065546040516000916001600160a01b0316907f8be0079c531659141344cd1fd0a4f28419497f9722a3daafe3b4186f6b6457e0908390a3606580547fffffffffffffffffffffffff0000000000000000000000000000000000000000169055565b6065546001600160a01b031690565b60378054604080516020601f60027fffffffffffffffffffffffffffffffffffffffffffffffffffffffffffffffff61010060018816150201909516949094049384018190048102820181019092528281526060939092909183018282801561073f5780601f106107145761010080835404028352916020019161073f565b600061075d610f5f6111d0565b8461097885604051806060016040528060258152602001611d376025913960346000610f896111d0565b6001600160a01b03908116825260208083019390935260409182016000908120918d168152925290205491906115f5565b600061075d610fc76111d0565b8484611498565b6098546001600160a01b0316610fe26111d0565b6001600160a01b03161461103d576040805162461bcd60e51b815260206004820152601d60248201527f596f75277265206e6f7420616c6c6f77656420746f206465706f736974000000604482015290519081900360640190fd5b60008282602081101561104f57600080fd5b5035905061105d84826117e9565b50505050565b6097546001600160a01b031681565b6001600160a01b03918216600090815260346020908152604080832093909416825291909152205490565b6110a56111d0565b6001600160a01b03166110b6610ec4565b6001600160a01b031614611111576040805162461bcd60e51b815260206004820181905260248201527f4f776e61626c653a2063616c6c6572206973206e6f7420746865206f776e6572604482015290519081900360640190fd5b6001600160a01b0381166111565760405162461bcd60e51b8152600401808060200182810382526026815260200180611bba6026913960400191505060405180910390fd5b6065546040516001600160a01b038084169216907f8be0079c531659141344cd1fd0a4f28419497f9722a3daafe3b4186f6b6457e090600090a3606580547fffffffffffffffffffffffff0000000000000000000000000000000000000000166001600160a01b0392909216919091179055565b3b151590565b3390565b6001600160a01b0383166112195760405162461bcd60e51b8152600401808060200182810382526024815260200180611d136024913960400191505060405180910390fd5b6001600160a01b03821661125e5760405162461bcd60e51b8152600401808060200182810382526022815260200180611be06022913960400191505060405180910390fd5b6001600160a01b03808416600081815260346020908152604080832094871680845294825291829020859055815185815291517f8c5be1e5ebec7d5bd14f71427d1e84f3dd0314c0f7b2291e5b200ac8c7c3b9259281900390910190a3505050565b60006112cb306111ca565b15905090565b600054610100900460ff16806112ea57506112ea6112c0565b806112f8575060005460ff16155b6113335760405162461bcd60e51b815260040180806020018281038252602e815260200180611c4f602e913960400191505060405180910390fd5b600054610100900460ff1615801561135e576000805460ff1961ff0019909116610100171660011790555b6113666118db565b611370838361197c565b8015611382576000805461ff00191690555b505050565b600054610100900460ff16806113a057506113a06112c0565b806113ae575060005460ff16155b6113e95760405162461bcd60e51b815260040180806020018281038252602e815260200180611c4f602e913960400191505060405180910390fd5b600054610100900460ff16158015611414576000805460ff1961ff0019909116610100171660011790555b600061141e6111d0565b606580547fffffffffffffffffffffffff0000000000000000000000000000000000000000166001600160a01b038316908117909155604051919250906000907f8be0079c531659141344cd1fd0a4f28419497f9722a3daafe3b4186f6b6457e0908290a3508015610ad9576000805461ff001916905550565b6001600160a01b0383166114dd5760405162461bcd60e51b8152600401808060200182810382526025815260200180611cc66025913960400191505060405180910390fd5b6001600160a01b0382166115225760405162461bcd60e51b8152600401808060200182810382526023815260200180611b536023913960400191505060405180910390fd5b61152d838383611382565b61156a81604051806060016040528060268152602001611c02602691396001600160a01b03861660009081526033602052604090205491906115f5565b6001600160a01b0380851660009081526033602052604080822093909355908416815220546115999082611788565b6001600160a01b0380841660008181526033602090815260409182902094909455805185815290519193928716927fddf252ad1be2c89b69c2b068fc378daa952ba7f163c4a11628f55a4df523b3ef92918290030190a3505050565b600081848411156116845760405162461bcd60e51b81526004018080602001828103825283818151815260200191508051906020019080838360005b83811015611649578181015183820152602001611631565b50505050905090810190601f1680156116765780820380516001836020036101000a031916815260200191505b509250505060405180910390fd5b505050900390565b6001600160a01b0382166116d15760405162461bcd60e51b8152600401808060200182810382526021815260200180611ca56021913960400191505060405180910390fd5b6116dd82600083611382565b61171a81604051806060016040528060228152602001611b76602291396001600160a01b03851660009081526033602052604090205491906115f5565b6001600160a01b0383166000908152603360205260409020556035546117409082611a54565b6035556040805182815290516000916001600160a01b038516917fddf252ad1be2c89b69c2b068fc378daa952ba7f163c4a11628f55a4df523b3ef9181900360200190a35050565b6000828201838110156117e2576040805162461bcd60e51b815260206004820152601b60248201527f536166654d6174683a206164646974696f6e206f766572666c6f770000000000604482015290519081900360640190fd5b9392505050565b6001600160a01b038216611844576040805162461bcd60e51b815260206004820152601f60248201527f45524332303a206d696e7420746f20746865207a65726f206164647265737300604482015290519081900360640190fd5b61185060008383611382565b60355461185d9082611788565b6035556001600160a01b0382166000908152603360205260409020546118839082611788565b6001600160a01b03831660008181526033602090815260408083209490945583518581529351929391927fddf252ad1be2c89b69c2b068fc378daa952ba7f163c4a11628f55a4df523b3ef9281900390910190a35050565b600054610100900460ff16806118f457506118f46112c0565b80611902575060005460ff16155b61193d5760405162461bcd60e51b815260040180806020018281038252602e815260200180611c4f602e913960400191505060405180910390fd5b600054610100900460ff16158015611968576000805460ff1961ff0019909116610100171660011790555b8015610ad9576000805461ff001916905550565b600054610100900460ff168061199557506119956112c0565b806119a3575060005460ff16155b6119de5760405162461bcd60e51b815260040180806020018281038252602e815260200180611c4f602e913960400191505060405180910390fd5b600054610100900460ff16158015611a09576000805460ff1961ff0019909116610100171660011790555b8251611a1c906036906020860190611ab1565b508151611a30906037906020850190611ab1565b506038805460ff191660121790558015611382576000805461ff0019169055505050565b600082821115611aab576040805162461bcd60e51b815260206004820152601e60248201527f536166654d6174683a207375627472616374696f6e206f766572666c6f770000604482015290519081900360640190fd5b50900390565b828054600181600116156101000203166002900490600052602060002090601f016020900481019282611ae75760008555611b2d565b82601f10611b0057805160ff1916838001178555611b2d565b82800160010185558215611b2d579182015b82811115611b2d578251825591602001919060010190611b12565b50611b39929150611b3d565b5090565b5b80821115611b395760008155600101611b3e56fe45524332303a207472616e7366657220746f20746865207a65726f206164647265737345524332303a206275726e20616d6f756e7420657863656564732062616c616e6365426164204368696c64436861696e4d616e6167657250726f787920616464726573734f776e61626c653a206e6577206f776e657220697320746865207a65726f206164647265737345524332303a20617070726f766520746f20746865207a65726f206164647265737345524332303a207472616e7366657220616d6f756e7420657863656564732062616c616e6365746f6b656e207472616e7366657220746f20657363726f772061646472657373206661696c6564496e697469616c697a61626c653a20636f6e747261637420697320616c726561647920696e697469616c697a656445524332303a207472616e7366657220616d6f756e74206578636565647320616c6c6f77616e636545524332303a206275726e2066726f6d20746865207a65726f206164647265737345524332303a207472616e736665722066726f6d20746865207a65726f20616464726573735f6368696c64436861696e4d616e6167657250726f7879206d757374206e6f74206265206e756c6c45524332303a20617070726f76652066726f6d20746865207a65726f206164647265737345524332303a2064656372656173656420616c6c6f77616e63652062656c6f77207a65726fa2646970667358221220becbca4b8f24b778598da44b9a459428ea13081f84681be334d3dd374ac042c964736f6c634300070600334f776e61626c653a206e6577206f776e657220697320746865207a65726f2061646472657373496e697469616c697a61626c653a20636f6e747261637420697320616c726561647920696e697469616c697a65648be0079c531659141344cd1fd0a4f28419497f9722a3daafe3b4186f6b6457e05f6368696c64436861696e4d616e6167657250726f7879206d757374206e6f74206265206e756c6c",
  "immutableReferences": {},
  "source": "// SPDX-License-Identifier: MIT\r\npragma solidity ^0.7.6;\r\n\r\nimport \"@openzeppelin/contracts-upgradeable/token/ERC20/ERC20Upgradeable.sol\";\r\nimport \"@openzeppelin/contracts-upgradeable/access/OwnableUpgradeable.sol\";\r\n\r\ninterface IEscrow {\r\n  function fundUser(string calldata _userId, uint256 _tokens) external;\r\n}\r\n\r\n/**\r\n * @title RenderToken\r\n * @dev ERC20 mintable token\r\n * The token will be minted by the crowdsale contract only\r\n */\r\ncontract RenderToken is ERC20Upgradeable, OwnableUpgradeable {\r\n\r\n  // The address of the contract that manages user balances. Address is used for forwarding tokens\r\n  // that come in to fund jobs\r\n  address public escrowContractAddress;\r\n  // Matic childChainManager\r\n  address public childChainManagerProxy;\r\n\r\n  // Emit new contract address when escrowContractAddress has been changed\r\n  event EscrowContractAddressUpdate(address escrowContractAddress);\r\n  // Emit information related to tokens being escrowed\r\n  event TokensEscrowed(address indexed sender, string userId, uint256 amount);\r\n\r\n  /**\r\n   * @dev Calling initialize in logic implementation contract\r\n   */\r\n  constructor() {\r\n    initialize(address(1), address(1), \"1\", \"1\");\r\n  }\r\n\r\n  /**\r\n   * @dev Initailization\r\n   * @param _owner Owner of the contract is able to change the Escrow address\r\n   * @param _childChainManagerProxy Matic Child Chain Manager Proxy address\r\n   */\r\n  function initialize(address _owner, address _childChainManagerProxy, string memory _name, string memory _symbol) public initializer {\r\n    require(_owner != address(0), \"_owner must not be null\");\r\n    require(_childChainManagerProxy != address(0), \"_childChainManagerProxy must not be null\");\r\n    __ERC20_init(_name, _symbol);\r\n    __Ownable_init_unchained();\r\n    OwnableUpgradeable.transferOwnership(_owner);\r\n    childChainManagerProxy = _childChainManagerProxy;\r\n  }\r\n\r\n  /**\r\n   * @dev Push tokens into an escrow \r\n   *\r\n   * This function is called by the artist, and it will transfer tokens\r\n   * to a separate escrow contract to be held\r\n   * @param _userID is the ID of the user\r\n   * @param _amount is the number of RNDR tokens being added to escrow\r\n   */\r\n  function holdInEscrow(string calldata _userID, uint256 _amount) public {\r\n    require(transfer(escrowContractAddress, _amount), \"token transfer to escrow address failed\");\r\n    IEscrow(escrowContractAddress).fundUser(_userID, _amount);\r\n\r\n    emit TokensEscrowed(_msgSender(), _userID, _amount);\r\n  }\r\n\r\n  /**\r\n   * @dev Set the address of the escrow contract\r\n   *\r\n   * This will dictate the contract that will hold tokens in escrow and keep\r\n   * a ledger of funds available for jobs.\r\n   * RNDR is still in its infancy, and changes may need to be made to this\r\n   * contract and / or the escrow contract. Including methods to update the\r\n   * addresses allows the contracts to update independently.\r\n   * If the escrow contract is ever migrated to another address for\r\n   * either added security or functionality, this will need to be called.\r\n   * @param _escrowAddress see escrowContractAddress\r\n   */\r\n  function setEscrowContractAddress(address _escrowAddress) public onlyOwner {\r\n    require(_escrowAddress != address(0), \"_escrowAddress must not be null\");\r\n    escrowContractAddress = _escrowAddress;\r\n\r\n    emit EscrowContractAddressUpdate(escrowContractAddress);\r\n  }\r\n\r\n  ///////////////////////////////////////\r\n  // Matic child token functions below //\r\n  ///////////////////////////////////////\r\n\r\n  // being proxified smart contract, most probably childChainManagerProxy contract's address\r\n  // is not going to change ever, but still, lets keep it \r\n  function updateChildChainManager(address newChildChainManagerProxy) external onlyOwner {\r\n    require(newChildChainManagerProxy != address(0), \"Bad ChildChainManagerProxy address\");\r\n\r\n    childChainManagerProxy = newChildChainManagerProxy;\r\n  }\r\n\r\n  /**\r\n    * @notice called when token is deposited on root chain\r\n    * @dev Should be callable only by ChildChainManager\r\n    * Should handle deposit by minting the required amount for user\r\n    * Make sure minting is done only by this function\r\n    * @param user user address for whom deposit is being done\r\n    * @param depositData abi encoded amount\r\n    */\r\n  function deposit(address user, bytes calldata depositData)\r\n      external\r\n  {\r\n    require(_msgSender() == childChainManagerProxy, \"You're not allowed to deposit\");\r\n\r\n    uint256 amount = abi.decode(depositData, (uint256));\r\n    _mint(user, amount);\r\n  }\r\n\r\n  /**\r\n    * @notice called when user wants to withdraw tokens back to root chain\r\n    * @dev Should burn user's tokens. This transaction will be verified when exiting on root chain\r\n    * @param amount amount of tokens to withdraw\r\n    */\r\n  function withdraw(uint256 amount) external {\r\n    _burn(_msgSender(), amount);\r\n  }\r\n}\r\n",
  "sourcePath": "/d/Repos/rndr-testnet/contracts/RenderTokenMatic.sol",
  "compiler": {
    "name": "solc",
    "version": "0.7.6+commit.7338295f.Emscripten.clang"
  },
  "schemaVersion": "3.3.4",
  "updatedAt": "2021-02-19T18:06:10.147Z",
  "devdoc": {
    "details": "ERC20 mintable token The token will be minted by the crowdsale contract only",
    "kind": "dev",
    "methods": {
      "allowance(address,address)": {
        "details": "See {IERC20-allowance}."
      },
      "approve(address,uint256)": {
        "details": "See {IERC20-approve}. Requirements: - `spender` cannot be the zero address."
      },
      "balanceOf(address)": {
        "details": "See {IERC20-balanceOf}."
      },
      "constructor": {
        "details": "Calling initialize in logic implementation contract"
      },
      "decimals()": {
        "details": "Returns the number of decimals used to get its user representation. For example, if `decimals` equals `2`, a balance of `505` tokens should be displayed to a user as `5,05` (`505 / 10 ** 2`). Tokens usually opt for a value of 18, imitating the relationship between Ether and Wei. This is the value {ERC20} uses, unless {_setupDecimals} is called. NOTE: This information is only used for _display_ purposes: it in no way affects any of the arithmetic of the contract, including {IERC20-balanceOf} and {IERC20-transfer}."
      },
      "decreaseAllowance(address,uint256)": {
        "details": "Atomically decreases the allowance granted to `spender` by the caller. This is an alternative to {approve} that can be used as a mitigation for problems described in {IERC20-approve}. Emits an {Approval} event indicating the updated allowance. Requirements: - `spender` cannot be the zero address. - `spender` must have allowance for the caller of at least `subtractedValue`."
      },
      "deposit(address,bytes)": {
        "details": "Should be callable only by ChildChainManager Should handle deposit by minting the required amount for user Make sure minting is done only by this function",
        "params": {
          "depositData": "abi encoded amount",
          "user": "user address for whom deposit is being done"
        }
      },
      "holdInEscrow(string,uint256)": {
        "details": "Push tokens into an escrow  This function is called by the artist, and it will transfer tokens to a separate escrow contract to be held",
        "params": {
          "_amount": "is the number of RNDR tokens being added to escrow",
          "_userID": "is the ID of the user"
        }
      },
      "increaseAllowance(address,uint256)": {
        "details": "Atomically increases the allowance granted to `spender` by the caller. This is an alternative to {approve} that can be used as a mitigation for problems described in {IERC20-approve}. Emits an {Approval} event indicating the updated allowance. Requirements: - `spender` cannot be the zero address."
      },
      "initialize(address,address,string,string)": {
        "details": "Initailization",
        "params": {
          "_childChainManagerProxy": "Matic Child Chain Manager Proxy address",
          "_owner": "Owner of the contract is able to change the Escrow address"
        }
      },
      "name()": {
        "details": "Returns the name of the token."
      },
      "owner()": {
        "details": "Returns the address of the current owner."
      },
      "renounceOwnership()": {
        "details": "Leaves the contract without owner. It will not be possible to call `onlyOwner` functions anymore. Can only be called by the current owner. NOTE: Renouncing ownership will leave the contract without an owner, thereby removing any functionality that is only available to the owner."
      },
      "setEscrowContractAddress(address)": {
        "details": "Set the address of the escrow contract This will dictate the contract that will hold tokens in escrow and keep a ledger of funds available for jobs. RNDR is still in its infancy, and changes may need to be made to this contract and / or the escrow contract. Including methods to update the addresses allows the contracts to update independently. If the escrow contract is ever migrated to another address for either added security or functionality, this will need to be called.",
        "params": {
          "_escrowAddress": "see escrowContractAddress"
        }
      },
      "symbol()": {
        "details": "Returns the symbol of the token, usually a shorter version of the name."
      },
      "totalSupply()": {
        "details": "See {IERC20-totalSupply}."
      },
      "transfer(address,uint256)": {
        "details": "See {IERC20-transfer}. Requirements: - `recipient` cannot be the zero address. - the caller must have a balance of at least `amount`."
      },
      "transferFrom(address,address,uint256)": {
        "details": "See {IERC20-transferFrom}. Emits an {Approval} event indicating the updated allowance. This is not required by the EIP. See the note at the beginning of {ERC20}. Requirements: - `sender` and `recipient` cannot be the zero address. - `sender` must have a balance of at least `amount`. - the caller must have allowance for ``sender``'s tokens of at least `amount`."
      },
      "transferOwnership(address)": {
        "details": "Transfers ownership of the contract to a new account (`newOwner`). Can only be called by the current owner."
      },
      "withdraw(uint256)": {
        "details": "Should burn user's tokens. This transaction will be verified when exiting on root chain",
        "params": {
          "amount": "amount of tokens to withdraw"
        }
      }
    },
    "title": "RenderTokenMatic",
    "version": 1
  },
  "userdoc": {
    "kind": "user",
    "methods": {
      "deposit(address,bytes)": {
        "notice": "called when token is deposited on root chain"
      },
      "withdraw(uint256)": {
        "notice": "called when user wants to withdraw tokens back to root chain"
      }
    },
    "version": 1
  }
}