{
  "contractName": "RenderToken",
  "abi": [
    {
      "constant": true,
      "inputs": [],
      "name": "name",
      "outputs": [
        {
          "name": "",
          "type": "string"
        }
      ],
      "payable": false,
      "stateMutability": "view",
      "type": "function"
    },
    {
      "constant": false,
      "inputs": [
        {
          "name": "_spender",
          "type": "address"
        },
        {
          "name": "_value",
          "type": "uint256"
        }
      ],
      "name": "approve",
      "outputs": [
        {
          "name": "",
          "type": "bool"
        }
      ],
      "payable": false,
      "stateMutability": "nonpayable",
      "type": "function"
    },
    {
      "constant": true,
      "inputs": [],
      "name": "legacyToken",
      "outputs": [
        {
          "name": "",
          "type": "address"
        }
      ],
      "payable": false,
      "stateMutability": "view",
      "type": "function"
    },
    {
      "constant": true,
      "inputs": [],
      "name": "totalSupply",
      "outputs": [
        {
          "name": "",
          "type": "uint256"
        }
      ],
      "payable": false,
      "stateMutability": "view",
      "type": "function"
    },
    {
      "constant": false,
      "inputs": [
        {
          "name": "_from",
          "type": "address"
        },
        {
          "name": "_to",
          "type": "address"
        },
        {
          "name": "_value",
          "type": "uint256"
        }
      ],
      "name": "transferFrom",
      "outputs": [
        {
          "name": "",
          "type": "bool"
        }
      ],
      "payable": false,
      "stateMutability": "nonpayable",
      "type": "function"
    },
    {
      "constant": true,
      "inputs": [],
      "name": "decimals",
      "outputs": [
        {
          "name": "",
          "type": "uint8"
        }
      ],
      "payable": false,
      "stateMutability": "view",
      "type": "function"
    },
    {
      "constant": false,
      "inputs": [
        {
          "name": "_amount",
          "type": "uint256"
        }
      ],
      "name": "migrateToken",
      "outputs": [],
      "payable": false,
      "stateMutability": "nonpayable",
      "type": "function"
    },
    {
      "constant": false,
      "inputs": [
        {
          "name": "_spender",
          "type": "address"
        },
        {
          "name": "_subtractedValue",
          "type": "uint256"
        }
      ],
      "name": "decreaseApproval",
      "outputs": [
        {
          "name": "",
          "type": "bool"
        }
      ],
      "payable": false,
      "stateMutability": "nonpayable",
      "type": "function"
    },
    {
      "constant": true,
      "inputs": [
        {
          "name": "_owner",
          "type": "address"
        }
      ],
      "name": "balanceOf",
      "outputs": [
        {
          "name": "",
          "type": "uint256"
        }
      ],
      "payable": false,
      "stateMutability": "view",
      "type": "function"
    },
    {
      "constant": true,
      "inputs": [],
      "name": "owner",
      "outputs": [
        {
          "name": "",
          "type": "address"
        }
      ],
      "payable": false,
      "stateMutability": "view",
      "type": "function"
    },
    {
      "constant": false,
      "inputs": [],
      "name": "migrate",
      "outputs": [],
      "payable": false,
      "stateMutability": "nonpayable",
      "type": "function"
    },
    {
      "constant": true,
      "inputs": [],
      "name": "symbol",
      "outputs": [
        {
          "name": "",
          "type": "string"
        }
      ],
      "payable": false,
      "stateMutability": "view",
      "type": "function"
    },
    {
      "constant": false,
      "inputs": [
        {
          "name": "_to",
          "type": "address"
        },
        {
          "name": "_value",
          "type": "uint256"
        }
      ],
      "name": "transfer",
      "outputs": [
        {
          "name": "",
          "type": "bool"
        }
      ],
      "payable": false,
      "stateMutability": "nonpayable",
      "type": "function"
    },
    {
      "constant": true,
      "inputs": [
        {
          "name": "contractName",
          "type": "string"
        },
        {
          "name": "migrationId",
          "type": "string"
        }
      ],
      "name": "isMigrated",
      "outputs": [
        {
          "name": "",
          "type": "bool"
        }
      ],
      "payable": false,
      "stateMutability": "view",
      "type": "function"
    },
    {
      "constant": false,
      "inputs": [
        {
          "name": "_to",
          "type": "address"
        },
        {
          "name": "_amount",
          "type": "uint256"
        }
      ],
      "name": "migrateTokenTo",
      "outputs": [],
      "payable": false,
      "stateMutability": "nonpayable",
      "type": "function"
    },
    {
      "constant": true,
      "inputs": [],
      "name": "escrowContractAddress",
      "outputs": [
        {
          "name": "",
          "type": "address"
        }
      ],
      "payable": false,
      "stateMutability": "view",
      "type": "function"
    },
    {
      "constant": false,
      "inputs": [
        {
          "name": "_spender",
          "type": "address"
        },
        {
          "name": "_addedValue",
          "type": "uint256"
        }
      ],
      "name": "increaseApproval",
      "outputs": [
        {
          "name": "",
          "type": "bool"
        }
      ],
      "payable": false,
      "stateMutability": "nonpayable",
      "type": "function"
    },
    {
      "constant": true,
      "inputs": [
        {
          "name": "_owner",
          "type": "address"
        },
        {
          "name": "_spender",
          "type": "address"
        }
      ],
      "name": "allowance",
      "outputs": [
        {
          "name": "",
          "type": "uint256"
        }
      ],
      "payable": false,
      "stateMutability": "view",
      "type": "function"
    },
    {
      "constant": false,
      "inputs": [
        {
          "name": "newOwner",
          "type": "address"
        }
      ],
      "name": "transferOwnership",
      "outputs": [],
      "payable": false,
      "stateMutability": "nonpayable",
      "type": "function"
    },
    {
      "constant": true,
      "inputs": [],
      "name": "BURN_ADDRESS",
      "outputs": [
        {
          "name": "",
          "type": "address"
        }
      ],
      "payable": false,
      "stateMutability": "view",
      "type": "function"
    },
    {
      "anonymous": false,
      "inputs": [
        {
          "indexed": false,
          "name": "escrowContractAddress",
          "type": "address"
        }
      ],
      "name": "EscrowContractAddressUpdate",
      "type": "event"
    },
    {
      "anonymous": false,
      "inputs": [
        {
          "indexed": true,
          "name": "sender",
          "type": "address"
        },
        {
          "indexed": false,
          "name": "jobId",
          "type": "string"
        },
        {
          "indexed": false,
          "name": "amount",
          "type": "uint256"
        }
      ],
      "name": "TokensEscrowed",
      "type": "event"
    },
    {
      "anonymous": false,
      "inputs": [
        {
          "indexed": true,
          "name": "receiver",
          "type": "address"
        },
        {
          "indexed": false,
          "name": "amount",
          "type": "uint256"
        }
      ],
      "name": "TokenMigration",
      "type": "event"
    },
    {
      "anonymous": false,
      "inputs": [
        {
          "indexed": true,
          "name": "owner",
          "type": "address"
        },
        {
          "indexed": true,
          "name": "spender",
          "type": "address"
        },
        {
          "indexed": false,
          "name": "value",
          "type": "uint256"
        }
      ],
      "name": "Approval",
      "type": "event"
    },
    {
      "anonymous": false,
      "inputs": [
        {
          "indexed": true,
          "name": "from",
          "type": "address"
        },
        {
          "indexed": true,
          "name": "to",
          "type": "address"
        },
        {
          "indexed": false,
          "name": "value",
          "type": "uint256"
        }
      ],
      "name": "Transfer",
      "type": "event"
    },
    {
      "anonymous": false,
      "inputs": [
        {
          "indexed": true,
          "name": "previousOwner",
          "type": "address"
        },
        {
          "indexed": true,
          "name": "newOwner",
          "type": "address"
        }
      ],
      "name": "OwnershipTransferred",
      "type": "event"
    },
    {
      "anonymous": false,
      "inputs": [
        {
          "indexed": false,
          "name": "contractName",
          "type": "string"
        },
        {
          "indexed": false,
          "name": "migrationId",
          "type": "string"
        }
      ],
      "name": "Migrated",
      "type": "event"
    },
    {
      "constant": false,
      "inputs": [
        {
          "name": "_owner",
          "type": "address"
        },
        {
          "name": "_legacyToken",
          "type": "address"
        }
      ],
      "name": "initialize",
      "outputs": [],
      "payable": false,
      "stateMutability": "nonpayable",
      "type": "function"
    },
    {
      "constant": false,
      "inputs": [
        {
          "name": "_sender",
          "type": "address"
        }
      ],
      "name": "initialize",
      "outputs": [],
      "payable": false,
      "stateMutability": "nonpayable",
      "type": "function"
    },
    {
      "constant": false,
      "inputs": [
        {
          "name": "_jobID",
          "type": "string"
        },
        {
          "name": "_amount",
          "type": "uint256"
        }
      ],
      "name": "holdInEscrow",
      "outputs": [],
      "payable": false,
      "stateMutability": "nonpayable",
      "type": "function"
    },
    {
      "constant": false,
      "inputs": [
        {
          "name": "_escrowAddress",
          "type": "address"
        }
      ],
      "name": "setEscrowContractAddress",
      "outputs": [],
      "payable": false,
      "stateMutability": "nonpayable",
      "type": "function"
    }
  ],
  "bytecode": "0x608060405234801561001057600080fd5b50612c24806100206000396000f30060806040526004361061013e576000357c0100000000000000000000000000000000000000000000000000000000900463ffffffff16806306fdde0314610143578063095ea7b3146101d3578063131554551461023857806318160ddd1461028f57806323b872dd146102ba57806329fc99da1461033f578063313ce56714610382578063448f643b146103b3578063485cc955146104265780635f6be6141461048957806366188463146104b657806370a082311461051b5780638da5cb5b146105725780638fd3ab80146105c957806395d89b41146105e0578063a9059cbb14610670578063c0bac1a8146106d5578063c19d45501461079c578063c4d66de8146107e9578063d226ae081461082c578063d73dd62314610883578063dd62ed3e146108e8578063f2fde38b1461095f578063fccc2813146109a2575b600080fd5b34801561014f57600080fd5b506101586109f9565b6040518080602001828103825283818151815260200191508051906020019080838360005b8381101561019857808201518184015260208101905061017d565b50505050905090810190601f1680156101c55780820380516001836020036101000a031916815260200191505b509250505060405180910390f35b3480156101df57600080fd5b5061021e600480360381019080803573ffffffffffffffffffffffffffffffffffffffff16906020019092919080359060200190929190505050610a32565b604051808215151515815260200191505060405180910390f35b34801561024457600080fd5b5061024d610b24565b604051808273ffffffffffffffffffffffffffffffffffffffff1673ffffffffffffffffffffffffffffffffffffffff16815260200191505060405180910390f35b34801561029b57600080fd5b506102a4610b4a565b6040518082815260200191505060405180910390f35b3480156102c657600080fd5b50610325600480360381019080803573ffffffffffffffffffffffffffffffffffffffff169060200190929190803573ffffffffffffffffffffffffffffffffffffffff16906020019092919080359060200190929190505050610b54565b604051808215151515815260200191505060405180910390f35b34801561034b57600080fd5b50610380600480360381019080803573ffffffffffffffffffffffffffffffffffffffff169060200190929190505050610f13565b005b34801561038e57600080fd5b506103976110dd565b604051808260ff1660ff16815260200191505060405180910390f35b3480156103bf57600080fd5b50610424600480360381019080803590602001908201803590602001908080601f0160208091040260200160405190810160405280939291908181526020018383808284378201915050505050509192919290803590602001909291905050506110e2565b005b34801561043257600080fd5b50610487600480360381019080803573ffffffffffffffffffffffffffffffffffffffff169060200190929190803573ffffffffffffffffffffffffffffffffffffffff16906020019092919050505061137d565b005b34801561049557600080fd5b506104b460048036038101908080359060200190929190505050611757565b005b3480156104c257600080fd5b50610501600480360381019080803573ffffffffffffffffffffffffffffffffffffffff16906020019092919080359060200190929190505050611764565b604051808215151515815260200191505060405180910390f35b34801561052757600080fd5b5061055c600480360381019080803573ffffffffffffffffffffffffffffffffffffffff1690602001909291905050506119f5565b6040518082815260200191505060405180910390f35b34801561057e57600080fd5b50610587611a3e565b604051808273ffffffffffffffffffffffffffffffffffffffff1673ffffffffffffffffffffffffffffffffffffffff16815260200191505060405180910390f35b3480156105d557600080fd5b506105de611a64565b005b3480156105ec57600080fd5b506105f5611b6c565b6040518080602001828103825283818151815260200191508051906020019080838360005b8381101561063557808201518184015260208101905061061a565b50505050905090810190601f1680156106625780820380516001836020036101000a031916815260200191505b509250505060405180910390f35b34801561067c57600080fd5b506106bb600480360381019080803573ffffffffffffffffffffffffffffffffffffffff16906020019092919080359060200190929190505050611ba5565b604051808215151515815260200191505060405180910390f35b3480156106e157600080fd5b50610782600480360381019080803590602001908201803590602001908080601f0160208091040260200160405190810160405280939291908181526020018383808284378201915050505050509192919290803590602001908201803590602001908080601f0160208091040260200160405190810160405280939291908181526020018383808284378201915050505050509192919290505050611dc9565b604051808215151515815260200191505060405180910390f35b3480156107a857600080fd5b506107e7600480360381019080803573ffffffffffffffffffffffffffffffffffffffff16906020019092919080359060200190929190505050611eb4565b005b3480156107f557600080fd5b5061082a600480360381019080803573ffffffffffffffffffffffffffffffffffffffff169060200190929190505050611f13565b005b34801561083857600080fd5b506108416121d1565b604051808273ffffffffffffffffffffffffffffffffffffffff1673ffffffffffffffffffffffffffffffffffffffff16815260200191505060405180910390f35b34801561088f57600080fd5b506108ce600480360381019080803573ffffffffffffffffffffffffffffffffffffffff169060200190929190803590602001909291905050506121f7565b604051808215151515815260200191505060405180910390f35b3480156108f457600080fd5b50610949600480360381019080803573ffffffffffffffffffffffffffffffffffffffff169060200190929190803573ffffffffffffffffffffffffffffffffffffffff1690602001909291905050506123f3565b6040518082815260200191505060405180910390f35b34801561096b57600080fd5b506109a0600480360381019080803573ffffffffffffffffffffffffffffffffffffffff16906020019092919050505061247a565b005b3480156109ae57600080fd5b506109b76125d2565b604051808273ffffffffffffffffffffffffffffffffffffffff1673ffffffffffffffffffffffffffffffffffffffff16815260200191505060405180910390f35b6040805190810160405280600c81526020017f52656e64657220546f6b656e000000000000000000000000000000000000000081525081565b600081600560003373ffffffffffffffffffffffffffffffffffffffff1673ffffffffffffffffffffffffffffffffffffffff16815260200190815260200160002060008573ffffffffffffffffffffffffffffffffffffffff1673ffffffffffffffffffffffffffffffffffffffff168152602001908152602001600020819055508273ffffffffffffffffffffffffffffffffffffffff163373ffffffffffffffffffffffffffffffffffffffff167f8c5be1e5ebec7d5bd14f71427d1e84f3dd0314c0f7b2291e5b200ac8c7c3b925846040518082815260200191505060405180910390a36001905092915050565b600160009054906101000a900473ffffffffffffffffffffffffffffffffffffffff1681565b6000600454905090565b60008073ffffffffffffffffffffffffffffffffffffffff168373ffffffffffffffffffffffffffffffffffffffff1614151515610b9157600080fd5b600360008573ffffffffffffffffffffffffffffffffffffffff1673ffffffffffffffffffffffffffffffffffffffff168152602001908152602001600020548211151515610bdf57600080fd5b600560008573ffffffffffffffffffffffffffffffffffffffff1673ffffffffffffffffffffffffffffffffffffffff16815260200190815260200160002060003373ffffffffffffffffffffffffffffffffffffffff1673ffffffffffffffffffffffffffffffffffffffff168152602001908152602001600020548211151515610c6a57600080fd5b610cbc82600360008773ffffffffffffffffffffffffffffffffffffffff1673ffffffffffffffffffffffffffffffffffffffff168152602001908152602001600020546125d890919063ffffffff16565b600360008673ffffffffffffffffffffffffffffffffffffffff1673ffffffffffffffffffffffffffffffffffffffff16815260200190815260200160002081905550610d5182600360008673ffffffffffffffffffffffffffffffffffffffff1673ffffffffffffffffffffffffffffffffffffffff168152602001908152602001600020546125f190919063ffffffff16565b600360008573ffffffffffffffffffffffffffffffffffffffff1673ffffffffffffffffffffffffffffffffffffffff16815260200190815260200160002081905550610e2382600560008773ffffffffffffffffffffffffffffffffffffffff1673ffffffffffffffffffffffffffffffffffffffff16815260200190815260200160002060003373ffffffffffffffffffffffffffffffffffffffff1673ffffffffffffffffffffffffffffffffffffffff168152602001908152602001600020546125d890919063ffffffff16565b600560008673ffffffffffffffffffffffffffffffffffffffff1673ffffffffffffffffffffffffffffffffffffffff16815260200190815260200160002060003373ffffffffffffffffffffffffffffffffffffffff1673ffffffffffffffffffffffffffffffffffffffff168152602001908152602001600020819055508273ffffffffffffffffffffffffffffffffffffffff168473ffffffffffffffffffffffffffffffffffffffff167fddf252ad1be2c89b69c2b068fc378daa952ba7f163c4a11628f55a4df523b3ef846040518082815260200191505060405180910390a3600190509392505050565b600260009054906101000a900473ffffffffffffffffffffffffffffffffffffffff1673ffffffffffffffffffffffffffffffffffffffff163373ffffffffffffffffffffffffffffffffffffffff16141515610f6f57600080fd5b600073ffffffffffffffffffffffffffffffffffffffff168173ffffffffffffffffffffffffffffffffffffffff1614151515611014576040517f08c379a000000000000000000000000000000000000000000000000000000000815260040180806020018281038252601f8152602001807f5f657363726f7741646472657373206d757374206e6f74206265206e756c6c0081525060200191505060405180910390fd5b80600660006101000a81548173ffffffffffffffffffffffffffffffffffffffff021916908373ffffffffffffffffffffffffffffffffffffffff1602179055507fe6fedbb0ca24d3941dc4a12d0828506721f168790753ebe6c0983f1e508c575f600660009054906101000a900473ffffffffffffffffffffffffffffffffffffffff16604051808273ffffffffffffffffffffffffffffffffffffffff1673ffffffffffffffffffffffffffffffffffffffff16815260200191505060405180910390a150565b601281565b61110e600660009054906101000a900473ffffffffffffffffffffffffffffffffffffffff1682611ba5565b15156111a8576040517f08c379a00000000000000000000000000000000000000000000000000000000081526004018080602001828103825260278152602001807f746f6b656e207472616e7366657220746f20657363726f77206164647265737381526020017f206661696c65640000000000000000000000000000000000000000000000000081525060400191505060405180910390fd5b600660009054906101000a900473ffffffffffffffffffffffffffffffffffffffff1673ffffffffffffffffffffffffffffffffffffffff166333c16f1c83836040518363ffffffff167c01000000000000000000000000000000000000000000000000000000000281526004018080602001838152602001828103825284818151815260200191508051906020019080838360005b8381101561125957808201518184015260208101905061123e565b50505050905090810190601f1680156112865780820380516001836020036101000a031916815260200191505b509350505050600060405180830381600087803b1580156112a657600080fd5b505af11580156112ba573d6000803e3d6000fd5b505050503373ffffffffffffffffffffffffffffffffffffffff167fd25cf0decfa32e171787ff892bef2e16ce72fd045887ea9af9bd7f105ecd716283836040518080602001838152602001828103825284818151815260200191508051906020019080838360005b8381101561133e578082015181840152602081019050611323565b50505050905090810190601f16801561136b5780820380516001836020036101000a031916815260200191505b50935050505060405180910390a25050565b6040805190810160405280600b81526020017f52656e646572546f6b656e0000000000000000000000000000000000000000008152506040805190810160405280600181526020017f30000000000000000000000000000000000000000000000000000000000000008152506113f38282611dc9565b1515156113ff57600080fd5b600073ffffffffffffffffffffffffffffffffffffffff168473ffffffffffffffffffffffffffffffffffffffff16141515156114a4576040517f08c379a00000000000000000000000000000000000000000000000000000000081526004018080602001828103825260178152602001807f5f6f776e6572206d757374206e6f74206265206e756c6c00000000000000000081525060200191505060405180910390fd5b600073ffffffffffffffffffffffffffffffffffffffff168373ffffffffffffffffffffffffffffffffffffffff1614151515611549576040517f08c379a000000000000000000000000000000000000000000000000000000000815260040180806020018281038252601d8152602001807f5f6c6567616379546f6b656e206d757374206e6f74206265206e756c6c00000081525060200191505060405180910390fd5b61155284611f13565b61155b8361260d565b7fdd117a11c22118c9dee4b5a67ce578bc44529dce21ee0ccc439588fbb9fb4ea38282604051808060200180602001838103835285818151815260200191508051906020019080838360005b838110156115c25780820151818401526020810190506115a7565b50505050905090810190601f1680156115ef5780820380516001836020036101000a031916815260200191505b50838103825284818151815260200191508051906020019080838360005b8381101561162857808201518184015260208101905061160d565b50505050905090810190601f1680156116555780820380516001836020036101000a031916815260200191505b5094505050505060405180910390a160016000836040518082805190602001908083835b60208310151561169e5780518252602082019150602081019050602083039250611679565b6001836020036101000a0380198251168184511680821785525050505050509050019150509081526020016040518091039020826040518082805190602001908083835b60208310151561170757805182526020820191506020810190506020830392506116e2565b6001836020036101000a038019825116818451168082178552505050505050905001915050908152602001604051809103902060006101000a81548160ff02191690831515021790555050505050565b6117613382611eb4565b50565b600080600560003373ffffffffffffffffffffffffffffffffffffffff1673ffffffffffffffffffffffffffffffffffffffff16815260200190815260200160002060008573ffffffffffffffffffffffffffffffffffffffff1673ffffffffffffffffffffffffffffffffffffffff16815260200190815260200160002054905080831115611875576000600560003373ffffffffffffffffffffffffffffffffffffffff1673ffffffffffffffffffffffffffffffffffffffff16815260200190815260200160002060008673ffffffffffffffffffffffffffffffffffffffff1673ffffffffffffffffffffffffffffffffffffffff16815260200190815260200160002081905550611909565b61188883826125d890919063ffffffff16565b600560003373ffffffffffffffffffffffffffffffffffffffff1673ffffffffffffffffffffffffffffffffffffffff16815260200190815260200160002060008673ffffffffffffffffffffffffffffffffffffffff1673ffffffffffffffffffffffffffffffffffffffff168152602001908152602001600020819055505b8373ffffffffffffffffffffffffffffffffffffffff163373ffffffffffffffffffffffffffffffffffffffff167f8c5be1e5ebec7d5bd14f71427d1e84f3dd0314c0f7b2291e5b200ac8c7c3b925600560003373ffffffffffffffffffffffffffffffffffffffff1673ffffffffffffffffffffffffffffffffffffffff16815260200190815260200160002060008873ffffffffffffffffffffffffffffffffffffffff1673ffffffffffffffffffffffffffffffffffffffff168152602001908152602001600020546040518082815260200191505060405180910390a3600191505092915050565b6000600360008373ffffffffffffffffffffffffffffffffffffffff1673ffffffffffffffffffffffffffffffffffffffff168152602001908152602001600020549050919050565b600260009054906101000a900473ffffffffffffffffffffffffffffffffffffffff1681565b6000600160009054906101000a900473ffffffffffffffffffffffffffffffffffffffff1673ffffffffffffffffffffffffffffffffffffffff166370a08231336040518263ffffffff167c0100000000000000000000000000000000000000000000000000000000028152600401808273ffffffffffffffffffffffffffffffffffffffff1673ffffffffffffffffffffffffffffffffffffffff168152602001915050602060405180830381600087803b158015611b2357600080fd5b505af1158015611b37573d6000803e3d6000fd5b505050506040513d6020811015611b4d57600080fd5b81019080805190602001909291905050509050611b6981611757565b50565b6040805190810160405280600481526020017f524e44520000000000000000000000000000000000000000000000000000000081525081565b60008073ffffffffffffffffffffffffffffffffffffffff168373ffffffffffffffffffffffffffffffffffffffff1614151515611be257600080fd5b600360003373ffffffffffffffffffffffffffffffffffffffff1673ffffffffffffffffffffffffffffffffffffffff168152602001908152602001600020548211151515611c3057600080fd5b611c8282600360003373ffffffffffffffffffffffffffffffffffffffff1673ffffffffffffffffffffffffffffffffffffffff168152602001908152602001600020546125d890919063ffffffff16565b600360003373ffffffffffffffffffffffffffffffffffffffff1673ffffffffffffffffffffffffffffffffffffffff16815260200190815260200160002081905550611d1782600360008673ffffffffffffffffffffffffffffffffffffffff1673ffffffffffffffffffffffffffffffffffffffff168152602001908152602001600020546125f190919063ffffffff16565b600360008573ffffffffffffffffffffffffffffffffffffffff1673ffffffffffffffffffffffffffffffffffffffff168152602001908152602001600020819055508273ffffffffffffffffffffffffffffffffffffffff163373ffffffffffffffffffffffffffffffffffffffff167fddf252ad1be2c89b69c2b068fc378daa952ba7f163c4a11628f55a4df523b3ef846040518082815260200191505060405180910390a36001905092915050565b600080836040518082805190602001908083835b602083101515611e025780518252602082019150602081019050602083039250611ddd565b6001836020036101000a0380198251168184511680821785525050505050509050019150509081526020016040518091039020826040518082805190602001908083835b602083101515611e6b5780518252602082019150602081019050602083039250611e46565b6001836020036101000a038019825116818451168082178552505050505050905001915050908152602001604051809103902060009054906101000a900460ff16905092915050565b611ebe82826128cb565b611f0f3361dead83600160009054906101000a900473ffffffffffffffffffffffffffffffffffffffff1673ffffffffffffffffffffffffffffffffffffffff16612ad8909392919063ffffffff16565b5050565b6040805190810160405280600781526020017f4f776e61626c65000000000000000000000000000000000000000000000000008152506040805190810160405280600581526020017f312e392e30000000000000000000000000000000000000000000000000000000815250611f898282611dc9565b151515611f9557600080fd5b82600260006101000a81548173ffffffffffffffffffffffffffffffffffffffff021916908373ffffffffffffffffffffffffffffffffffffffff1602179055507fdd117a11c22118c9dee4b5a67ce578bc44529dce21ee0ccc439588fbb9fb4ea38282604051808060200180602001838103835285818151815260200191508051906020019080838360005b8381101561203d578082015181840152602081019050612022565b50505050905090810190601f16801561206a5780820380516001836020036101000a031916815260200191505b50838103825284818151815260200191508051906020019080838360005b838110156120a3578082015181840152602081019050612088565b50505050905090810190601f1680156120d05780820380516001836020036101000a031916815260200191505b5094505050505060405180910390a160016000836040518082805190602001908083835b60208310151561211957805182526020820191506020810190506020830392506120f4565b6001836020036101000a0380198251168184511680821785525050505050509050019150509081526020016040518091039020826040518082805190602001908083835b602083101515612182578051825260208201915060208101905060208303925061215d565b6001836020036101000a038019825116818451168082178552505050505050905001915050908152602001604051809103902060006101000a81548160ff021916908315150217905550505050565b600660009054906101000a900473ffffffffffffffffffffffffffffffffffffffff1681565b600061228882600560003373ffffffffffffffffffffffffffffffffffffffff1673ffffffffffffffffffffffffffffffffffffffff16815260200190815260200160002060008673ffffffffffffffffffffffffffffffffffffffff1673ffffffffffffffffffffffffffffffffffffffff168152602001908152602001600020546125f190919063ffffffff16565b600560003373ffffffffffffffffffffffffffffffffffffffff1673ffffffffffffffffffffffffffffffffffffffff16815260200190815260200160002060008573ffffffffffffffffffffffffffffffffffffffff1673ffffffffffffffffffffffffffffffffffffffff168152602001908152602001600020819055508273ffffffffffffffffffffffffffffffffffffffff163373ffffffffffffffffffffffffffffffffffffffff167f8c5be1e5ebec7d5bd14f71427d1e84f3dd0314c0f7b2291e5b200ac8c7c3b925600560003373ffffffffffffffffffffffffffffffffffffffff1673ffffffffffffffffffffffffffffffffffffffff16815260200190815260200160002060008773ffffffffffffffffffffffffffffffffffffffff1673ffffffffffffffffffffffffffffffffffffffff168152602001908152602001600020546040518082815260200191505060405180910390a36001905092915050565b6000600560008473ffffffffffffffffffffffffffffffffffffffff1673ffffffffffffffffffffffffffffffffffffffff16815260200190815260200160002060008373ffffffffffffffffffffffffffffffffffffffff1673ffffffffffffffffffffffffffffffffffffffff16815260200190815260200160002054905092915050565b600260009054906101000a900473ffffffffffffffffffffffffffffffffffffffff1673ffffffffffffffffffffffffffffffffffffffff163373ffffffffffffffffffffffffffffffffffffffff161415156124d657600080fd5b600073ffffffffffffffffffffffffffffffffffffffff168173ffffffffffffffffffffffffffffffffffffffff161415151561251257600080fd5b8073ffffffffffffffffffffffffffffffffffffffff16600260009054906101000a900473ffffffffffffffffffffffffffffffffffffffff1673ffffffffffffffffffffffffffffffffffffffff167f8be0079c531659141344cd1fd0a4f28419497f9722a3daafe3b4186f6b6457e060405160405180910390a380600260006101000a81548173ffffffffffffffffffffffffffffffffffffffff021916908373ffffffffffffffffffffffffffffffffffffffff16021790555050565b61dead81565b60008282111515156125e657fe5b818303905092915050565b6000818301905082811015151561260457fe5b80905092915050565b6040805190810160405280601381526020017f4f7074496e45524332304d6967726174696f6e000000000000000000000000008152506040805190810160405280600581526020017f312e392e300000000000000000000000000000000000000000000000000000008152506126838282611dc9565b15151561268f57600080fd5b82600160006101000a81548173ffffffffffffffffffffffffffffffffffffffff021916908373ffffffffffffffffffffffffffffffffffffffff1602179055507fdd117a11c22118c9dee4b5a67ce578bc44529dce21ee0ccc439588fbb9fb4ea38282604051808060200180602001838103835285818151815260200191508051906020019080838360005b8381101561273757808201518184015260208101905061271c565b50505050905090810190601f1680156127645780820380516001836020036101000a031916815260200191505b50838103825284818151815260200191508051906020019080838360005b8381101561279d578082015181840152602081019050612782565b50505050905090810190601f1680156127ca5780820380516001836020036101000a031916815260200191505b5094505050505060405180910390a160016000836040518082805190602001908083835b60208310151561281357805182526020820191506020810190506020830392506127ee565b6001836020036101000a0380198251168184511680821785525050505050509050019150509081526020016040518091039020826040518082805190602001908083835b60208310151561287c5780518252602082019150602081019050602083039250612857565b6001836020036101000a038019825116818451168082178552505050505050905001915050908152602001604051809103902060006101000a81548160ff021916908315150217905550505050565b600073ffffffffffffffffffffffffffffffffffffffff168273ffffffffffffffffffffffffffffffffffffffff1614151515612970576040517f08c379a000000000000000000000000000000000000000000000000000000000815260040180806020018281038252601c8152602001807f5f746f2061646472657373206d757374206e6f74206265206e756c6c0000000081525060200191505060405180910390fd5b612985816004546125f190919063ffffffff16565b6004819055506129dd81600360008573ffffffffffffffffffffffffffffffffffffffff1673ffffffffffffffffffffffffffffffffffffffff168152602001908152602001600020546125f190919063ffffffff16565b600360008473ffffffffffffffffffffffffffffffffffffffff1673ffffffffffffffffffffffffffffffffffffffff168152602001908152602001600020819055508173ffffffffffffffffffffffffffffffffffffffff167fb587194ea6c8d30ac3f9973c37a39f8f87dd0d2d1a2d13b724e4bf9bd08b7787826040518082815260200191505060405180910390a28173ffffffffffffffffffffffffffffffffffffffff16600073ffffffffffffffffffffffffffffffffffffffff167fddf252ad1be2c89b69c2b068fc378daa952ba7f163c4a11628f55a4df523b3ef836040518082815260200191505060405180910390a35050565b8373ffffffffffffffffffffffffffffffffffffffff166323b872dd8484846040518463ffffffff167c0100000000000000000000000000000000000000000000000000000000028152600401808473ffffffffffffffffffffffffffffffffffffffff1673ffffffffffffffffffffffffffffffffffffffff1681526020018373ffffffffffffffffffffffffffffffffffffffff1673ffffffffffffffffffffffffffffffffffffffff1681526020018281526020019350505050602060405180830381600087803b158015612baf57600080fd5b505af1158015612bc3573d6000803e3d6000fd5b505050506040513d6020811015612bd957600080fd5b81019080805190602001909291905050501515612bf257fe5b505050505600a165627a7a72305820b58964714d7c3eb1271a9a6ddcf551588f3afbe0c53e3f7c09a5b936eb9e4b620029",
  "source": "pragma solidity ^0.4.24;\r\n\r\n// Escrow constract\r\nimport { Escrow } from \"./Escrow.sol\";\r\nimport { Migratable } from \"../node_modules/zos-lib/contracts/migrations/Migratable.sol\";\r\nimport { MigratableERC20 } from \"./MigratableERC20.sol\";\r\nimport { Ownable } from \"../node_modules/openzeppelin-zos/contracts/ownership/Ownable.sol\";\r\nimport { StandardToken } from \"../node_modules/openzeppelin-zos/contracts/token/ERC20/StandardToken.sol\";\r\n\r\n/**\r\n * @title RenderToken\r\n * @dev ERC20 mintable token\r\n * The token will be minted by the crowdsale contract only\r\n */\r\ncontract RenderToken is Migratable, MigratableERC20, Ownable, StandardToken {\r\n\r\n  string public constant name = \"Render Token\";\r\n  string public constant symbol = \"RNDR\";\r\n  uint8 public constant decimals = 18;\r\n\r\n  // The address of the contract that manages job balances. Address is used for forwarding tokens\r\n  // that come in to fund jobs\r\n  address public escrowContractAddress;\r\n\r\n  // Emit new contract address when escrowContractAddress has been changed\r\n  event EscrowContractAddressUpdate(address escrowContractAddress);\r\n  // Emit information related to tokens being escrowed\r\n  event TokensEscrowed(address indexed sender, string jobId, uint256 amount);\r\n  // Emit information related to legacy tokens being migrated\r\n  event TokenMigration(address indexed receiver, uint256 amount);\r\n\r\n  /**\r\n   * @dev Initailization\r\n   * @param _owner because this contract uses proxies, owner must be passed in as a param\r\n   */\r\n  function initialize(address _owner, address _legacyToken) public isInitializer(\"RenderToken\", \"0\") {\r\n    require(_owner != address(0), \"_owner must not be null\");\r\n    require(_legacyToken != address(0), \"_legacyToken must not be null\");\r\n    Ownable.initialize(_owner);\r\n    MigratableERC20.initialize(_legacyToken);\r\n  }\r\n\r\n  /**\r\n   * @dev Take tokens prior to beginning a job\r\n   *\r\n   * This function is called by the artist, and it will transfer tokens\r\n   * to a separate escrow contract to be held until the job is completed\r\n   * @param _jobID is the ID of the job used within the ORC backend\r\n   * @param _amount is the number of RNDR tokens being held in escrow\r\n   */\r\n  function holdInEscrow(string _jobID, uint256 _amount) public {\r\n    require(transfer(escrowContractAddress, _amount), \"token transfer to escrow address failed\");\r\n    Escrow(escrowContractAddress).fundJob(_jobID, _amount);\r\n\r\n    emit TokensEscrowed(msg.sender, _jobID, _amount);\r\n  }\r\n\r\n  /**\r\n   * @dev Mints new tokens equal to the amount of legacy tokens burned\r\n   *\r\n   * This function is called internally, but triggered by a user choosing to\r\n   * migrate their balance.\r\n   * @param _to is the address tokens will be sent to\r\n   * @param _amount is the number of RNDR tokens being sent to the address\r\n   */\r\n  function _mintMigratedTokens(address _to, uint256 _amount) internal {\r\n    require(_to != address(0), \"_to address must not be null\");\r\n    totalSupply_ = totalSupply_.add(_amount);\r\n    balances[_to] = balances[_to].add(_amount);\r\n\r\n    emit TokenMigration(_to, _amount);\r\n    emit Transfer(address(0), _to, _amount);\r\n  }\r\n\r\n  /**\r\n   * @dev Set the address of the escrow contract\r\n   *\r\n   * This will dictate the contract that will hold tokens in escrow and keep\r\n   * a ledger of funds available for jobs.\r\n   * RNDR is still in its infancy, and changes may need to be made to this\r\n   * contract and / or the escrow contract. Including methods to update the\r\n   * addresses allows the contracts to update independently.\r\n   * If the escrow contract is ever migrated to another address for\r\n   * either added security or functionality, this will need to be called.\r\n   * @param _escrowAddress see escrowContractAddress\r\n   */\r\n  function setEscrowContractAddress(address _escrowAddress) public onlyOwner {\r\n    require(_escrowAddress != address(0), \"_escrowAddress must not be null\");\r\n    escrowContractAddress = _escrowAddress;\r\n\r\n    emit EscrowContractAddressUpdate(escrowContractAddress);\r\n  }\r\n\r\n}\r\n",
  "sourcePath": "/d/Repos/RNDR-Token/contracts/RenderToken.sol",
  "compiler": {
    "name": "solc",
    "version": "0.4.26+commit.4563c3fc.Emscripten.clang"
  },
  "schemaVersion": "2.0.3",
  "updatedAt": "2021-02-18T18:46:34.712Z"
}